:020000040800F2
:100000000002002001010008A1030008D118000827
:10001000D1180008D1180008D1180008D11800081C
:10002000D1180008D1180008D1180008D11800080C
:10003000D1180008D1180008D1180008D1180008FC
:10004000D1180008D1180008D1180008D1180008EC
:10005000D1180008D1180008D1180008D1180008DC
:10006000D1180008D1180008D1180008D1180008CC
:10007000D1180008D1180008D1180008D1180008BC
:10008000514B0008D1180008D1180008D1180008F9
:10009000D1180008D1180008D1180008D11800089C
:1000A000D1180008D1180008D1180008D11800088C
:1000B00091370008D1180008D1180008D11800089D
:1000C0000000000000000000000000000000000030
:1000D0000000000000000000000000000000000020
:1000E0000000000000000000000000000000000010
:1000F0000000000000000000000000000000000000
:1001000072B6224880F30988022080F31488BFF376
:100110006F8F03F0CDFD05F0B3FC1D481D491E4A4D
:10012000914202DA08600431FAE71C49174A914209
:1001300002DA08600431FAE719491A4A1A4B9A425E
:1001400004DA0868106004310432F8E70020174927
:10015000174A914202DA08600431FAE703F070FDB1
:1001600003F09EFD134C144DAC4203DA216888471E
:100170000434F9E705F08CF9104C114DAC4203DA68
:10018000216888470434F9E70E4908470004002035
:1001900055555555000000200002002000020020A7
:1001A000B06E000800040020B0040020B00400205D
:1001B000500F0020000100080001000800010008A5
:1001C00000010008913C0008000000000000000051
:1001D000F0B544464D4656465F46F0B46B46CB609C
:1001E000C3689D46F0BCA046A946B246BB46F0BDDA
:1001F00062B6281CA047002003F0DAFC03F000FDE3
:10020000014A024B1360FEE704ED00E000000080AD
:10021000002934D00123002210B488422CD30124B9
:100220002407A14204D2814202D209011B01F8E74E
:10023000E400A14204D2814202D249005B00F8E707
:10024000884201D3401A1A434C08A04202D3001B33
:100250005C0822438C08A04202D3001B9C08224366
:10026000CC08A04202D3001BDC082243002803D0A4
:100270001B0901D00909E3E7101C10BC70470028D6
:1002800001D00020C04307B4024802A140180290E8
:1002900003BDC0461D0000000029F0D003B5FFF7E4
:1002A000B9FF0EBC4243891A1847C046000000003F
:1002B0007047C04600000000000000000000000081
:1002C000074B08490022CC2099600A604860191C3D
:1002D00010311A60DA60196159619A617047C0463D
:1002E000B004002018050020C046C046C046C046E5
:1002F0007047C046C046C046C046C046C046C0461D
:10030000034BA421002249001A6059609A6070478B
:10031000D80B0020C046C046C046C046C046C046B6
:1003200000207047C046C046C046C046C046C046D2
:10033000024B00221B605B609A607047080500203A
:10034000014B00221A607047800B0020C046C04657
:10035000054B01221A60054A516A89B2536A9BB261
:100360009942FBD07047C046440F00200004004073
:10037000034B01221A6072B672B672B662B670474B
:10038000440F0020C046C046C046C046C046C046D6
:10039000024B802219680A431A60704700440040EB
:1003A000EFF30983203383F3098862B67047C046B0
:1003B00010B572B64A1E1018094A4B42146818400C
:1003C000013C61181940074B1B685B1A984204D81E
:1003D00008181060081C62B610BD0020FBE7C0467C
:1003E0004C0F0020480F0020C046C046C046C04603
:1003F00072B62023C35C072B0CD8124A9B00D3583B
:100400009F46436A9A6801329A604368016819609E
:100410000268536001235B42436200222023C254DE
:100420008268094B1B6899689142FBD25A68036045
:1004300042601060586062B67047436A00221A60DA
:10044000E8E7C046405B0008D40E0020C046C04626
:1004500030B5051CC30712D5214B002219689942FB
:1004600003D0096801329942FBD15968994203D0FF
:100470004968013A9942FBD10120002A2DD1AB07EE
:1004800016D5174B00221C1CD9691C34A14203D07D
:1004900009680132A142FBD11C1C196A1C34A1421B
:1004A00003D04968013AA142FBD10120002A14D1AE
:1004B00000206B0711D50A4B1A699A420ED01269B7
:1004C00001309A42FBD15A699A4203D052690138ED
:1004D0009A42FBD1431E9841C0B230BD0020F2E7E2
:1004E000D40E0020C046C046C046C046C046C046E6
:1004F000FEE7C046C046C046C046C046C046C046ED
:1005000038B572B60F4C2068A16983688A68934237
:1005100001D262B638BD036801255C602360A0612A
:100520002024055500250D5500E01B689C68A2425B
:10053000FBD95A680B604A6011605960FFF748FEAA
:10054000E7E7C046D40E0020C046C046C046C046BD
:10055000F8B50A4F041C21260425FFF7D1FFFFF749
:10056000CFFFFFF7CDFFFFF7CBFF2368BA69043356
:100570002360935D1D42F0D0F8BDC046D40E00202C
:10058000094B091A5B6A89B21B1A9BB200208B4285
:1005900008D3064A01231370054A01201370054A47
:1005A000054B1A607047C04600040040510E002001
:1005B000500E0020605B0008D00E0020C046C046F0
:1005C000084B30B51C1C1434212104251A68002A5C
:1005D00004D072B6505C2843505462B60433A34230
:1005E000F4D130BD840B0020C046C046C046C04692
:1005F00072B6054A054913688B4202D2591C116034
:10060000187062B67047C046180E00202C0E0020ED
:1006100008B50078FFF7ECFF08BDC046C046C046ED
:1006200008B54120FFF7E4FF08BDC046C046C046FC
:1006300008B54220FFF7DCFF08BDC046C046C046F3
:1006400008B54320FFF7D4FF08BDC046C046C046EA
:1006500008B50078FFF7CCFF08BDC046C046C046CD
:1006600038B50178041C094D002907D028680134E9
:1006700003689B68984721780029F7D128680449C6
:10068000036802221B68984738BDC0462C0E002024
:10069000745B0008C046C046C046C046C046C0465F
:1006A00038B50178041C002908D0054D28680134AC
:1006B00003689B68984721780029F7D138BDC04668
:1006C0002C0E0020C046C046C046C046C046C046AC
:1006D000F0B5474680B4041C84B0002828D06F468B
:1006E00001373D1C201C0A21FFF7D6FD0E1C3036B9
:1006F0006B1EF6B2201C1E700A21FFF789FDA8466A
:10070000041C01350028EDD16B4698450CD94446B0
:100710000B4D02E0A31E1E78013C2868311C0368C3
:100720009B689847A742F5D104B004BC9046F0BD41
:10073000034B3021186803689B689847F4E7C0466C
:100740002C0E0020C046C046C046C046C046C0462B
:1007500038B5334D012333482B60FFF7A1FF7020DC
:10076000FFF7B6FF304C201CFFF77AFF02232F481B
:100770002B60FFF795FF4420FFF7AAFF201CFFF72F
:100780006FFF03232A482B60FFF78AFF1420FFF72F
:100790009FFF201CFFF764FF042326482B60FFF710
:1007A0007FFF0C20FFF794FF201CFFF759FF052364
:1007B00021482B60FFF774FF1020FFF789FF201CF2
:1007C000FFF74EFF06231D482B60FFF769FF082047
:1007D000FFF77EFF201CFFF743FF072318482B601D
:1007E000FFF75EFF0420FFF773FF201CFFF738FFC1
:1007F000082314482B60FFF753FF1420FFF768FF0E
:10080000201CFFF72DFF09230F482B60FFF748FF3F
:100810002820FFF75DFF201CFFF722FF38BDC046F0
:10082000440F0020785B0008885B0008905B00089C
:10083000A05B0008B05B0008C05B0008D05B00084C
:10084000E05B0008F05B0008005C0008C046C046A2
:10085000F0B58C460F4F10493E680B1C05E015782B
:10086000227801300133954209D1041C1A1C9E42A2
:10087000F5D80378002B02D13960002008E0074A40
:1008800001231370064A01201370064B62461A605A
:10089000F0BDC046180E00201C0E0020510E002096
:1008A000500E0020D00E0020C046C046C046C046B4
:1008B0000023002807D1054A01231370044A13704E
:1008C000044B19600123181C7047C046510E0020CC
:1008D000500E0020D00E0020C046C046C046C04684
:1008E00038B51D4D01232B6072B60120FFF7B0FD16
:1008F00062B601246040C0B21849FFF7D9FF002852
:1009000000D038BD02232B6072B60220FFF7A0FD95
:1009100062B66040C0B21249FFF7CAFF0028F0D1AA
:1009200003232B6072B60420FFF792FD62B660408D
:10093000C0B20C49FFF7BCFF0028E2D104232B60B2
:1009400072B60820FFF784FD62B64440E0B2064963
:10095000FFF7AEFFD5E7C046440F0020105C00084B
:10096000285C00084C5C0008685C0008C046C04673
:1009700038B5084D4C2428682D210368013C9B683C
:100980009847002CF7D128680349036802221B68A6
:10099000984738BD2C0E0020745B0008C046C04646
:1009A0000F3011D072B6EFF30983203B83F309882F
:1009B00080225204DA61064A116892698968926855
:1009C000914202D8034A9A617047034A9A61FBE751
:1009D000D40E002000020008FD010008C046C046F9
:1009E00008B5031C72B60068002803D002681A60BC
:1009F00062B608BD9A68002AFAD058680421904768
:100A0000F6E7C046C046C046C046C046C046C046DF
:100A100072B6034B9B695A6B1043586362B67047BA
:100A2000D40E0020C046C046C046C046C046C046A0
:100A300072B6021C02E08B4205D01A1C1368834276
:100A4000F9D162B6704709681160FAE7C046C0463E
:100A500082684168131C483B10B50469D961111CB8
:100A60006C39D9600C6144694C61104C0C620168AE
:100A7000C06899610224202198605C5400212124DF
:100A80001955D863996359630120222158540849A4
:100A900048691961586103614B61111C20391C3A86
:100AA0000960181C1260526010BDC046F1010008B8
:100AB000D40E0020C046C046C046C046C046C04610
:100AC00038B50F4C2068A16983688A68934200D8C2
:100AD00038BD036801255C602360A06120240555B2
:100AE00000250D5500E01B689C68A242FBD35A68A4
:100AF0000B604A6011605960FFF76AFBE8E7C04687
:100B0000D40E0020C046C046C046C046C046C046BF
:100B100010B572B6074B9B69DC6B99688C4201D0AB
:100B2000814200D29860D863FFF7CAFF62B6201CEA
:100B300010BDC046D40E0020C046C046C046C046C8
:100B4000F0B54E4645465746E0B4204A204E0123B4
:100B50001360B36991469C68651C281CFFF7D8FF99
:100B60001C4F8046001B43425841C0B2391CFFF75E
:100B70009FFE002804D01CBC90469946A246F0BDBA
:100B8000B3699868281A43425841134BC0B2191CE4
:100B90009A46FFF78DFE0028EDD102234A464046D3
:100BA0001360FFF7B5FF281A45426841C0B2391CEF
:100BB000FFF77EFE0028DED1B36951469868201AFF
:100BC00044426041C0B2FFF773FED4E7440F0020F7
:100BD000D40E0020805C0008A45C0008C046C0461B
:100BE00008B5EFF30583DB0501D1FFF769FF62B6B6
:100BF00008BDC046C046C046C046C046C046C04606
:100C000070B5154E8468B5694162AA6894420DD8E2
:100C100020230022C254331C1B6899688C42FBD9E4
:100C20005A68036042601060586070BD2023002144
:100C3000E954331C1B6899688A42FBD95A682B60B7
:100C40006A6015605D6001222023C254291CB061D6
:100C5000FFF7BEFAE9E7C046D40E0020C046C04602
:100C6000F0B5124D87B0071C281C0E1C141CFFF792
:100C7000B7FE002818D06B680190C0180C4B009785
:100C8000029003960493059472B66846FFF7E0FE5F
:100C900002222123C25400210564041CFFF7B0FF87
:100CA00062B6201C07B0F0BD0020FBE7D80B002087
:100CB00011060008C046C046C046C046C046C046F1
:100CC00008B572B6836801338360002B01DD62B61C
:100CD00008BD036800211A6802605060181CFFF705
:100CE0008FFFF4E7C046C046C046C046C046C04677
:100CF000074B2022996910B588541868046863600E
:100D00001C60986101238354FFF762FA10BDC0464E
:100D1000D40E0020C046C046C046C046C046C046AD
:100D2000054B10B59C6972B60320FFF7E1FF636ABB
:100D3000002BF9D062B610BDD40E0020C046C046CC
:100D400010B572B60B4CA3691A1CD86A2C329042AB
:100D500007D00168D9624A6020230D22C25462B6CE
:100D600010BD0E20FFF7C4FFA3691A1C2C32D86AED
:100D7000EFE7C046D40E0020C046C046C046C0467D
:100D800010B5031C72B68268013A82600020002A06
:100D900001DB62B610BD074C0520A2695362596899
:100DA000136051600A605A60FFF7A2FFA369586A96
:100DB000EFE7C046D40E0020C046C046C046C0463D
:100DC000F8B5084C2123A269D35C5A0709D4064F11
:100DD00021260425381CFFF7D3FFA269935D1D422D
:100DE000F8D0F8BDD40E0020A80B0020C046C046A5
:100DF00010B5041C0348FFF7C3FF2078FFF7F8FB8A
:100E000010BDC04608050020C046C046C046C046CA
:100E100010B5044C201CFFF7B3FF201CFFF750FF58
:100E200010BDC04608050020C046C046C046C046AA
:100E300000222023C2548268054B1B6899689142A6
:100E4000FBD25A6803604260106058607047C04629
:100E5000D40E0020C046C046C046C046C046C0466C
:100E60000C4B10B59C6972B6031C61622C33236075
:100E7000036B63601C6004632023C35C0E2B05D0EE
:100E80000C20FFF735FF606A62B610BDFFF7D0FF98
:100E9000F6E7C046D40E0020C046C046C046C04655
:100EA00010B54121041CFFF7DBFF201C4221FFF796
:100EB000D7FF201C4321FFF7D3FF201C4421FFF75D
:100EC000CFFF10BDC046C046C046C046C046C04663
:100ED00008B5436B194341632023C35C0A2B0BD035
:100EE0000B2B00D008BD436A19408B42FAD1002376
:100EF0004362FFF79DFFF5E7436A0B42F2D0002300
:100F00004362FFF795FFEDE7C046C046C046C046C6
:100F100070B50468061C0D1CA0420ED0E3682B437C
:100F2000E360002D02D022691A4203D06068A168F4
:100F3000FFF7CEFF2468A642F0D170BDC046C04680
:100F400038B5114B04689D69C368AB63A04218D0E3
:100F5000E96B002B09D01A68934203D09268914242
:100F600000D2111CDB68002BF5D12368A960036057
:100F70005860A36B8460C360A063201CFFF758FF18
:100F800038BD00238360FBE7D40E0020C046C04676
:100F900038B5134B9D6972B6C3680468AB63A04251
:100FA0001BD0E96B002B09D01A68934203D09268DA
:100FB000914200D2111CDB68002BF5D12368A96097
:100FC00003605860A36B8460C360A063201CFFF7BC
:100FD0002FFFFFF775FD62B638BD00238360FAE787
:100FE000D40E0020C046C046C046C046C046C046DB
:100FF000F8B5051C2F4B80689C69002854D0A26866
:1010000081682026914207D28260835D062B32D010
:10101000072B1CD0002B12D02B1C03E09968A26870
:10102000914202D31B689D42F8D15A6823606260E6
:10103000062014605C606562FFF75AFEF8BD4368E5
:1010400007681F6002685360FFF7F2FEE4E7436839
:101050000168196001684B60416A0B1C02E09E68E0
:10106000964202D31B689942F9D15A6803604260E4
:1010700010605860D0E7436807681F6001684B60E4
:10108000416A0B1C02E09F68974202D31B68994299
:10109000F9D15A6803604260106058608868A2689D
:1010A00081689142B0D3B7E7A36BAC60EB60A563F6
:1010B000C4E7C046D40E0020C046C046C046C04665
:1010C00008B572B6FFF794FF62B608BDC046C046C9
:1010D000F0B556464D465F464446F0B4824683B06E
:1010E0008946002800D171E0102188464E46073617
:1010F000D044F60840460196FFF7E2FF514608311A
:101100000B6807229346002B1AD01A1C0F3258681E
:10111000161C5F46BE43441C321CE4001D1C083AEA
:101120001F190835BA4207D2083CA446019F9C1AF1
:101130006444E410A7421DD9191C0B68002BE4D1AC
:101140004046FFF725FF52461368002B45D0019E0D
:1011500008210136F000984700283ED053464D46FE
:1011600003604560083003B03CBC90469946A246F7
:10117000AB46F0BD9A4217D8019F874229D0019A09
:101180001F680132D2009A18981A6044C010176084
:1011900050600A601A1C4846514650601160404633
:1011A000FFF7F6FE281CDEE7551BED105D60A74239
:1011B0000AD20199019D01311F68C900E843511805
:1011C00004194C600F601960351CE4E7044882463E
:1011D0008AE718681A1C0860DDE70020C3E7C046EC
:1011E000300E0020C046C046C046C046C046C0467D
:1011F000F0B5041C87B00F1C1048211C161C1D1CC8
:10120000FFF766FF002816D00D4B019000190097DC
:10121000029003960493059572B66846FFF718FC92
:1012200001222123C2540021041CFFF7E9FC62B60D
:10123000201C07B0F0BD0020FBE7C046B80B002023
:1012400011060008C046C046C046C046C046C0465B
:1012500038B5064C051C201CFFF732FF2878FFF735
:10126000C7F9201CFFF794FE38BDC04618040020C3
:1012700038B5064C051C201CFFF722FF2878FFF725
:10128000B7F9201CFFF784FE38BDC04600040020DB
:10129000F0B557464E464546E0B4041C8A46914692
:1012A00027D010231B19181C9846FFF709FFA368C5
:1012B000002700260025002B08D05C680135361970
:1012C000A74200D2271C1B68002BF6D15346002BE7
:1012D00001D0F6001E604B46002B01D0FF001F60BE
:1012E0004046FFF755FE281C1CBC90469946A24676
:1012F000F0BD014CD5E7C046300E0020C046C046C8
:1013000070B5041C083C636826680733DB08351C8D
:10131000103663600835301CFFF7D2FE2B1CAB4241
:1013200004D0A34202D31B68AB42FAD11A68002A48
:1013300003D0944201D3131CF1E7616822601C6062
:101340004A1CD2002068A218824209D05A68511C57
:10135000C90059188C420FD0301CFFF719FE70BD20
:101360005068126809180131616022605A68511C86
:10137000C90059188C42EFD16168246852180132B3
:101380005A601C60E8E7C046C046C046C046C0463A
:10139000F0B556464D4644465F46F0B4BE4C85B067
:1013A000BE4D012301A9201C00222B60FFF770FF16
:1013B000BB4E013843425841C0B2311CFFF778FAA6
:1013C000002806D005B03CBC90469946A246AB46E4
:1013D000F0BDCD2102230901201C2B60FFF778FE10
:1013E00043425841C0B2AF49FFF762FA0028E9D141
:1013F00003231021201C2B60FFF76AFEAA4A071C5A
:10140000431E9841C0B2111C9046FFF751FA0028C4
:10141000D8D1381CFFF774FF042302A9201C03AAAB
:101420002B60FFF735FF0090013843425841C0B2AE
:101430009E49FFF73DFA0028C4D1029B0F209C4F24
:10144000984280414042391CFFF732FA0028B9D156
:10145000039B029A391CD01A43425841C0B2FFF78D
:1014600027FA0028AED105231021201C2B60FFF79E
:101470002FFE10218246201CFFF72AFE10218146F4
:10148000201CFFF725FE071C5046FFF739FF484692
:10149000FFF736FF381CFFF733FF69460022201C98
:1014A000FFF7F6FE013843425841C0B2311CFFF746
:1014B000FFF9071E00D085E706231021201C2B60B2
:1014C000FFF706FE10218146201CFFF701FE1021C8
:1014D0008246201CFFF7FCFDFFF712FF5046FFF786
:1014E0000FFF4846FFF70CFF3A1C6946201CFFF728
:1014F000CFFE013843425841C0B2311CFFF7D8F942
:10150000071E00D05EE707231121201C2B60FFF788
:10151000DFFD10218146201CFFF7DAFD8346484697
:10152000FFF7EEFE3A1C6946201CFFF7B1FE614F43
:10153000023843425841C0B2391CFFF7B9F981461D
:10154000002800D03EE71021201CFFF7C1FD6946AE
:1015500082464A46201CFFF79BFE0123984207D093
:101560000022201C6946FFF793FE831E5A42534116
:10157000181C311CFFF79CF98146002800D021E798
:101580005846FFF7BDFE5046FFF7BAFE4A46694689
:10159000201CFFF77DFE013843425841C0B2311C88
:1015A000FFF786F98146002800D00BE708231021B9
:1015B000201C2B60FFF78CFD10218346201CFFF7B9
:1015C00087FD82465846FFF79BFE69464A46201C27
:1015D000FFF75EFE023843425841391CC0B2FFF7A4
:1015E00067F9071E00D0EDE62021201CFFF770FDF3
:1015F000FFF786FE5046FFF783FE3A1C6946201C23
:10160000FFF746FE013843425841C0B2311CFFF794
:101610004FF9021E00D0D5E609236946201C2B6035
:10162000FFF736FE0099201CFFF752FD8146431E4E
:101630009841C0B24146FFF73BF9021E00D0C1E617
:10164000111C201CFFF724FE43425841C0B21A4926
:10165000FFF72EF9071E00D0B4E64846FFF750FE0C
:101660000A236946201C3A1C2B60FFF711FE013843
:1016700043425841C0B2311CFFF71AF9002800D08C
:10168000A0E6019B009A0D49D01A43425841C0B2CE
:10169000FFF70EF996E6C046B0040020440F002084
:1016A000C05C0008D05C0008E85C0008FC5C000836
:1016B000105D0008285D0008385D0008445D0008E2
:1016C00030B5144C83B00123694601AA0020236081
:1016D000FFF7DEFD10211048FFF7FAFC051C431E42
:1016E0009841C0B20D49FFF7E3F8002801D003B0DC
:1016F00030BD281CFFF704FE0223094900202360A7
:10170000FFF7E6FC434258410649C0B2FFF7D0F864
:10171000EDE7C046440F0020B0040020E85C00085C
:1017200000FFFFFFD05C0008C046C046C046C04670
:1017300008B5836801338360002B00DD08BD0368B2
:101740001A680260506000225A62181CFFF770FB92
:10175000F4E7C046C046C046C046C046C046C04684
:1017600070B58568041C01358160002D0BDC0226F4
:10177000764260680135436863601C60FFF758FB80
:101780004662012DF5D170BDC046C046C046C04678
:1017900010B5041C016863688160C160591A1C306F
:1017A0008910FFF7DDFF201C10300021FFF7D8FF64
:1017B00010BDC046C046C046C046C046C046C04632
:1017C00008B572B60348FFF7E3FFFFF779F962B691
:1017D00008BDC0462C040020C046C046C046C046D6
:1017E00008B5FFF7EDFF08BDC046C046C046C0467D
:1017F00008B5FFF7E5FF08BDC046C046C046C04675
:1018000008B5FFF7DDFF08BDC046C046C046C0466C
:1018100008B572B6FFF7A4FFFFF752F962B608BD2C
:10182000F8B51F4C1F4E0123201C3360FFF7A8FAA8
:10183000071C72B6A1681C4D4B424B41D8B2291C03
:10184000FFF736F8002801D062B6F8BD62B67842DC
:101850007841C0B21549FFF72BF80028F5D10223D3
:10186000201C3360FFF72CFA72B6A068291C0138DF
:1018700043425841C0B2FFF71BF80028E4D162B6DA
:101880000323201C02213360FFF7C2FF72B6A06859
:10189000291C023843425841C0B2FFF709F8D3E788
:1018A00008050020440F0020545D0008685D000812
:1018B00008B502480021FFF7ABFF08BD080500206E
:1018C000EFF31080C30702D4EFF3058372B67047BD
:1018D000FEE7C046C046C046C046C046C046C046F9
:1018E000094B0A4A1A60DA609A6010325A601A1C70
:1018F0001C32DA611A6204225A621A1C10321A610E
:101900005A6100229A6170472C040020980B002035
:10191000094B0A4A1A60DA609A6010325A601A1C3F
:101920001C32DA611A6204225A621A1C10321A61DD
:101930005A6100229A6170472C040020980B002005
:10194000074B08490022CC2099600A604860191CA6
:1019500010311A60DA60196159619A617047C046A6
:10196000B80B002018050020C046C046C046C0463F
:10197000024B00221B605B609A607047D00400201D
:10198000064B00221B605B60054B1B605B609A602E
:10199000044B1B605B609A607047C04610040020D7
:1019A0001804002000040020C046C046C046C046BF
:1019B000044B00221B605B60034B1B605B609A6002
:1019C0007047C0461004002018040020C046C046DE
:1019D000044B00221B605B60034B1B605B609A60E2
:1019E0007047C0461004002018040020C046C046BE
:1019F000024B00221B605B609A6070471804002055
:101A0000044B00221B605B609A60034B1B605B60B1
:101A10009A6070471804002000040020C046C046A9
:101A2000024B00221B605B609A6070471804002024
:101A3000F8B51E4D46464F46C0B48046281CFFF7F9
:101A40003FFB1B4E301CFFF73BFB72B6194CA369E2
:101A5000986B8146FFF774FA1749A2690B1C516213
:101A600003E09F689068874202D31B688B42F8D1DD
:101A700059681360516007200A605A60FFF738F90F
:101A8000A3695B6A013302D04846FFF7B1FA62B638
:101A900042461078FEF7ACFD301CFFF779FA281C9F
:101AA000FFF776FA0CBC90469946F8BD000400207A
:101AB00018040020D40E002010040020C046C046A8
:101AC000F8B5214A5F4656464D464446F0B40123D8
:101AD0001360934601F024FB1C4B1D4A1D4F1E4E04
:101AE0001E4D824600249946904672B60121381C4C
:101AF000321C002303F09CFA1949321C0023281CD5
:101B000003F096FA381C03F053FA281C03F050FA3D
:101B100062B64A46536A52469B1A9BB20134434509
:101B2000E3D95A4602230F481360FEF7B9FD60005F
:101B3000FEF7CEFD0C48FEF793FD3CBC904699465F
:101B4000A246AB46F8BDC046440F0020000400404A
:101B5000E7030000F4040020F1020008E004002084
:101B600010270000805D0008905D0008C046C04658
:101B700008B572B62223C25C013AC254016A104B06
:101B80000B400F2B01D062B608BD026943691A6190
:101B90000269536162B62123C35C03221340012B07
:101BA00009D0022BF0D1036CC26972B619681160BA
:101BB0001A6062B6E8E7C069FFF7A2FBE4E7C04637
:101BC000FF00FF00C046C046C046C046C046C046F3
:101BD00038B5041C72B62023C35C0F2B07D0074B0B
:101BE000826A9B691A6083620920FFF781F8656A3F
:101BF00062B6201CFFF7BCFF281C38BDD40E0020A5
:101C000070B5074C0026251C14352068002802D02A
:101C1000FFF7DEFF26600434AC42F6D170BDC0464B
:101C2000840B0020C046C046C046C046C046C046E1
:101C300070B5294C012305202360FEF7E9FE02233D
:101C4000236003F0F5FB053843425841C0B22349F5
:101C5000FEF72EFE002800D070BD03F089FB204D5A
:101C600043425841C0B2291CFEF722FE0028F3D19E
:101C70000323236001F054FA1A4B061C9B691A4A8D
:101C800099681A48013903F0BBFA194B186004230C
:101C9000236003F0CDFB331C32333436041CB1B265
:101CA00098B2FEF76DFC0028D6D1601E4442604118
:101CB000C0B21049FEF7FCFD0028CDD103F058FB5F
:101CC00043425841C0B2291CFEF7F2FD0028C3D19F
:101CD000FFF796FFC0E7C046440F00209C5D000858
:101CE000B45D0008D40E0020712E000818050020F5
:101CF000840B0020C05D0008C046C046C046C046F8
:101D000070B5354C012307202360FEF781FE0223C6
:101D1000236003F075FB314D013843425841C0B296
:101D2000291CFEF7C5FD002800D070BD03F068FB3C
:101D3000023843425841C0B2291CFEF7B9FD0028C1
:101D4000F3D103F05DFB043843425841C0B2291C73
:101D5000FEF7AEFD0028E8D103F00AFB204D434218
:101D60005841C0B2291CFEF7A3FD0028DDD1032392
:101D7000236001F0D5F91B4B061C9B691A4A996830
:101D80001A48013903F03CFA194B18600423236008
:101D900003F036FB331C311C32333431041C89B25E
:101DA00098B2FEF7EDFB0028BFD1601E44426041AF
:101DB000C0B21049FEF77CFD0028B6D103F0D8FA76
:101DC00043425841C0B2291CFEF772FD0028ACD135
:101DD000FFF716FFA9E7C046440F0020D45D0008B6
:101DE000B45D0008D40E0020712E000818050020F4
:101DF000840B0020C05D0008C046C046C046C046F7
:101E000038B5124C01232360114B12489B69124ACA
:101E10009968013103F0F4F9104B18600223236034
:101E20000424FEF78DFF456A72B6291CFEF7E8FE12
:101E300062B6E8B2013CFEF7DBFB002CF1D1FFF704
:101E4000DFFE07490748FEF703FD38BD440F0020B9
:101E5000D40E002018050020A10E0008840B0020DD
:101E6000F05D0008E85D0008C046C046C046C046B8
:101E700008B5FFF7C5FE08BDC046C046C046C0460F
:101E8000F8B51B4B1B4C9B691B4F9E680223711CB2
:101E90002360381C194A1A4B03F0B2F90323194D79
:101EA0002360A4235B002860B11CF818164A174B66
:101EB00003F0A6F904232360A4239B00F11C144A19
:101EC0006860F818134B03F09BF90523A8602360A2
:101ED00003F02EFA0623236003F02AFA0723236077
:101EE000FFF78EFE0C490D48FEF7B2FCF8BDC04668
:101EF000D40E0020440F002018050020311A0008DD
:101F0000045E0008840B0020F14E0008085E000803
:101F1000711200080C5E0008F05D0008105E0008F9
:101F2000F0B52B4A4746012380B41360294B2A4F52
:101F30009B692A4D9E689046711C2A1C381C284BB0
:101F400003F05EF9274CA4235B002060B11CF81855
:101F50002A1C254B03F054F9A42292006060F11C66
:101F6000B818224B2A1C03F04BF9F6239B00A06003
:101F7000311DF8182A1C1E4B03F042F9A422D2008E
:101F8000E060711DB8181B4B2A1C03F039F90223BD
:101F900042462061136072B6174C022520686D42DC
:101FA000A04208D0036823605C60FEF741FF4562F1
:101FB0002068A042F6D1FEF783FD62B6FFF720FE4F
:101FC0000E490F48FEF744FC04BC9046F0BDC046E5
:101FD000440F0020D40E002018050020F14E000808
:101FE0001C5E0008840B0020145E0008085E0008D8
:101FF0000C5E0008045E000810040020F05D00087C
:10200000185E0008C046C046C046C046C046C0462E
:10201000F0B5284A4746012380B41360264B274F6A
:102020009B69274D9E689046711C2A1C381C254BC5
:1020300003F0E6F8244CA4235B002060B11CF818E0
:102040002A1C224B03F0DCF8A42292006060F11CF1
:10205000B8181F4B2A1C03F0D3F8F6239B00A0608E
:10206000311DF8182A1C1B4B03F0CAF8A422D20019
:10207000E060711DB818184B2A1C03F0C1F8022348
:1020800042462061136072B603F062F903F060F912
:1020900003F05EF903F05CF903F05AF9FEF710FD66
:1020A00062B6FFF7ADFD0D490D48FEF7D1FB04BC4C
:1020B0009046F0BD440F0020D40E002018050020EB
:1020C000F14E00081C5E0008840B0020145E00081E
:1020D000085E00080C5E0008045E0008F05D000861
:1020E000185E0008C046C046C046C046C046C0464E
:1020F000304AF0B5936945469C682F4B5746984641
:102100004E46022391464246E0B413602B4B181C06
:102110009A46FEF7D5FF2A4F2A4E03234246136004
:10212000611C321C284B381C03F06AF8274DA4238D
:102130005B00A11C2860321CF818254B03F060F8E6
:10214000A4229200E11C6860224BB818321C03F0F4
:1021500057F8F6239B00211DA860321CF8181E4B6F
:1021600003F04EF8A422D200611DE8601B4BB818A2
:10217000321C03F045F804234246286150461360A0
:10218000FEF706FFFFF73CFD4A469369144998683D
:10219000201A44426041C0B2FEF78AFB002803D1F6
:1021A00010481149FEF754FB1CBC90469946A246C4
:1021B000F0BDC046D40E0020440F002018040020BB
:1021C00018050020511200081C5E0008840B002036
:1021D000145E0008085E00080C5E0008045E00083B
:1021E000205E0008185E0008F05D0008C046C0468A
:1021F00008B5FFF705FD08BDC046C046C046C0464D
:1022000008B5FFF7FDFC08BDC046C046C046C04645
:10221000F0B52D4A2D4E4746012380B41360B369B3
:102220002B4F2C4D99689046381C2A1C05312A4B9F
:1022300002F0E6FF294CA4235B002060F818B36984
:102240002A1C9968264B013102F0DAFFB369A422F7
:102250009968920060600331B818224B2A1C02F082
:10226000CFFFF6239B00A060F818B3692A1C996879
:102270001D4B043102F0C4FFB369A4229968D20057
:102280000231E060194BB8182A1C02F0B9FF206136
:10229000174C42460223201C1360FEF711FD201C40
:1022A000FEF70EFD201CFEF70BFD201CFEF708FDBF
:1022B000201CFEF705FDFFF7A3FC0E490E48FEF7B4
:1022C000C7FA04BC9046F0BD440F0020D40E002095
:1022D00018050020F10D0008045E0008840B0020A2
:1022E0000C5E0008085E0008145E00081C5E000812
:1022F00008050020F05D0008185E0008C046C046D2
:10230000F8B5204C012323601F4B204E9B69204AC7
:1023100099682048331C013102F072FF1E4B18608F
:102320000223236072B602241C4D002702E0013C08
:10233000002C0ED0AA680132AA60002AF7DC2868B7
:10234000013C02682A605560FEF772FD4762002C6E
:10235000F0D1FEF7B5FB62B6FFF752FC72B6A86883
:102360000F49013843425841C0B2FEF7A1FA002894
:1023700001D062B6F8BD62B60A49301CFEF768FAB1
:10238000F8E7C046440F0020D40E0020045E000889
:10239000F10D000818050020840B0020080500201E
:1023A000385E0008F05D0008C046C046C046C04622
:1023B000F8B55F4656464D464446F0B45C4A5D4E1D
:1023C00001231360B3695C4D5C4F996893460539EE
:1023D0002A1C5B4B381C02F013FFA4235B00DB19A3
:1023E0009A46B369574C9968206004392A1C564BA9
:1023F000504602F005FFB369606099682A1C0339F2
:10240000524B534802F0FCFEB369A06099682A1C45
:102410000239504B504802F0F3FEB3692A1C996808
:10242000E06001394D4B4E4802F0EAFE2061FFF7B3
:10243000E7FB4C4A4C4B101C191C91469846FEF782
:1024400007FA002805D03CBC90469946A246AB4608
:10245000F8BD02235A461360B3692A1C99684048A4
:1024600001393E4B02F0CCFEB369206199682A1C09
:102470000239384B384802F0C3FEB369E06099680E
:102480002A1C0339314B324802F0BAFEB369A0600E
:1024900099682A1C04392C4B504602F0B1FEB369EE
:1024A000606099682A1C0539254B381C02F0A8FE8B
:1024B0002060FFF7A5FB48464146FEF7C9F9002812
:1024C000C1D15A4603231360B3692A1C9968504648
:1024D00004391D4B02F094FEB369606099682A1CB0
:1024E0000539381C164B02F08BFEB36920609968E1
:1024F0002A1C0139194B1A4802F082FEB369206187
:1025000099682A1C0239134B134802F079FEB3690B
:10251000E06099682A1C03390C4B0D4802F070FEEC
:10252000A060FFF76DFB48464146FEF791F98AE748
:10253000440F0020D40E002051060008180500208A
:102540001C5E0008840B0020145E0008085E000872
:10255000A80700200C5E0008F0080020045E0008B8
:10256000380A0020185E0008F05D0008C046C0462A
:1025700038B5041C0D1C72B605E0201C291C02F0A5
:10258000C7FD002816DBA368002BF6D0A368A2695C
:10259000013BA360531CA36115782269934201D3C8
:1025A000E368A361E369002B01D0201C984762B661
:1025B000281C38BD62B6FCE7C046C046C046C046CF
:1025C00008B50C30FFF7D4FF08BDC046C046C04672
:1025D00008B50C300149FFF7CBFF08BDFFFF000035
:1025E000F0B556464D4644465F46F0B4151CC269E8
:1025F00083B0041C0E1C9A46914672B6244B0027E9
:102600005B6A53449BB201935346013B9BB29B468A
:10261000A368002B1ED0A368013BA360731C9846DF
:10262000A3695A1CA2611B783370A26923699A427C
:1026300001D3E268A2614B46002B01D0201CC847A1
:1026400062B6013D0137002D14D072B6A36846462C
:10265000002BE0D10F4B9B4514D80D4B019A596AC2
:10266000511A89B28A4504D3201C02F051FD00287A
:10267000CED062B6381C03B03CBC90469946A24608
:10268000AB46F0BD201C514602F042FDEFE7C046CC
:1026900000040040FDFF0000C046C046C046C046E2
:1026A00008B50C30FFF79CFF08BDC046C046C046C9
:1026B00008B50C30014BFFF793FF08BDFFFF00008A
:1026C00070B5041C0E1C151C72B605E0201C291CDC
:1026D00002F01EFD002817DBA368002BF6D0A368CC
:1026E000013BA36063695A1C62611E7062692369C1
:1026F0009A4201D3E2686261E369002B01D0201C99
:10270000984762B6002070BD62B6FCE7C046C0467E
:1027100008B53030FFF7D4FF08BDC046C046C046FC
:1027200008B53030014AFFF7CBFF08BDFFFF0000BE
:1027300008B5303002F004FD08BDC046C046C046B2
:1027400008B53030014B02F0FBFC08BDFFFF000074
:1027500010B58468031C621E82600020002A00DB22
:1027600010BD00290BD0084A926953625868136063
:10277000506002605A60052002F0A2FCF0E70120E0
:102780009C604042ECE7C046D40E0020C046C046E4
:1027900010B5011C72B60B4C201CFFF7D9FF0028A6
:1027A00006D1E068002805D00368E36062B610BD7A
:1027B0000020FBE76369002BFAD0206904219847C9
:1027C000F4E7C04664040020C046C046C046C04688
:1027D00008B5064B012264201A60FFF7D9FF434277
:1027E0005841C0B20249FEF763F808BD440F00200B
:1027F000485E0008C046C046C046C046C046C04607
:1028000070B5061C72B60D4D281CFFF7A1FF041E03
:102810000DD12B1C1C3B99680A1D9A600E605968EB
:102820008A4207D20648FEF783FFFEF749F962B6EF
:10283000201C70BD1A689A60F4E7C0464804002066
:102840003C040020C046C046C046C046C046C04604
:1028500070B5061C72B60D4D281CFFF779FF041EDB
:102860000DD12A1C1C3AD3681168043BD3608B42FB
:1028700008D31E600648FEF75BFFFEF721F962B63B
:10288000201C70BD5368043BD360F2E7480400206D
:102890003C040020C046C046C046C046C046C046B4
:1028A00070B5061C72B60D4D281CFFF751FF041EB3
:1028B0000ED12B1C103BD9680A1D0968DA60316003
:1028C00059688A4207D20648FEF732FFFEF7F8F849
:1028D00062B6201C70BD1A68DA60F4E73C04002080
:1028E00048040020C046C046C046C046C046C04658
:1028F000F0B54D465F4656464446F0B4864D01233A
:1029000083B02B6072B6854C8549606A04384342B7
:102910005841C0B2FDF7CCFF002807D062B603B023
:102920003CBC90469946A246AB46F0BD62B6022337
:102930002B60FEF745FF72B6606A7A4E0438434258
:102940005841C0B2311CFDF7B3FF0028E6D162B692
:1029500072B6A269744F50425041C0B2391CFDF7A3
:10296000A7FF0028DAD162B672B62368A268981A67
:10297000434258416D4BC0B2191C9846FDF798FF71
:102980000028CBD162B672B62268E368D01A684AD2
:1029900043425841C0B2111C9346FDF789FF0028FD
:1029A000BCD162B60323634A2B6042239946924608
:1029B00061494846FFF724FF43425841C0B251469F
:1029C000FDF776FF0028AAD1012399444A46452AFB
:1029D000EED159494120FFF73BFF43425841C0B275
:1029E0005146FDF765FF002899D1042399462B60D5
:1029F00072B6626A514950425041C0B2FDF758FF69
:102A0000002800D08AE762B672B6A0694C49043843
:102A100043425841C0B2FDF74BFF002800D07DE78C
:102A200062B672B6E368A2684649981A43425841B2
:102A3000C0B2FDF73DFF002800D06FE762B6052366
:102A40002B603D4901A8FFF72BFF43425841C0B21C
:102A50005146FDF72DFF002800D060E7019BD8B25A
:102A6000FDF7C6FD0122524291444B46002BE8D1AE
:102A700035483649FDF7ECFE002800D04FE7062325
:102A80002D4946202B60FFF7BBFE43425841C0B2A0
:102A90005146FDF70DFF002800D040E7264901A868
:102AA000FFF7FEFE43425841C0B25146FDF700FF1A
:102AB000002800D033E707232B6072B6606A311C10
:102AC000043843425841C0B2FDF7F2FE002800D05E
:102AD00024E762B672B6A269391C50425041C0B2B6
:102AE000FDF7E6FE002800D018E762B62368A2686A
:102AF0004146981A43425841C0B2FDF7D9FE00281A
:102B000000D00CE7E36820685946C01A4342584198
:102B1000C0B2FDF7CDFE02E7440F00202C040020D8
:102B2000585E0008385D0008645E0008705E0008AA
:102B3000945E0008B85E0008FFFF0000D05E000849
:102B4000DC5E0008E85E0008E85D0008005F000841
:102B5000F0B54D465F4656464446F0B4A14D0123BC
:102B600083B02B6072B6A04CA049606A043843421F
:102B70005841C0B2FDF79CFE002807D062B603B0F2
:102B80003CBC90469946A246AB46F0BD62B60223D5
:102B90002B6072B6201CFEF7FBFD62B672B6606A4F
:102BA000934E043843425841C0B2311CFDF780FEB9
:102BB0000028E3D162B672B6A1698E4F48424841FF
:102BC000C0B2391CFDF774FE0028D7D162B672B6C8
:102BD000A36822688849D01A43425841C0B2884647
:102BE000FDF766FE0028C9D162B672B6E3682268B6
:102BF0008249D01A43425841C0B28B46FDF758FE75
:102C00000028BBD162B603232B607D4B4222914644
:102C10009A4672B6636A002B00DC8DE0A268013B25
:102C200063624946131DA36011606268934201D339
:102C30002368A3607348FEF77BFD012062B651460E
:102C4000FDF736FE002800D099E7012189444A4665
:102C5000452ADED172B6636A002B10DD013B636248
:102C6000E3682168043BE3608B4202D26368043B63
:102C7000E360412263481A60FEF75AFD012062B604
:102C80005146FDF715FE002800D078E70422914652
:102C90002A6072B6616A48424841C0B25A49FDF79B
:102CA00007FE002800D069E762B672B6A0695749EE
:102CB000043843425841C0B2FDF7FAFD002800D065
:102CC0005CE762B672B6A368E2685149D01A434223
:102CD0005841C0B2FDF7ECFD002800D04EE762B6C7
:102CE00005232B6021E0E268013BA3616168131DAD
:102CF0001268E36001928B4201D32268E26045488A
:102D0000FEF716FD002062B601305146FDF7D0FDFA
:102D1000002800D033E7019BD8B2FDF769FC012100
:102D2000494289444A46002A08D072B6A369002B5A
:102D3000D9DC01204042E6E700207FE736483749EA
:102D4000FDF786FD002800D019E706233449462008
:102D50002B60FFF755FD43425841C0B25146FDF785
:102D6000A7FD002800D00AE72D4901A8FFF798FD2C
:102D700043425841C0B25146FDF79AFD002800D0A9
:102D8000FDE607232B6072B6606A311C04384342AB
:102D90005841C0B2FDF78CFD002800D0EEE662B6C7
:102DA00072B6A16948424841C0B2391CFDF780FDA6
:102DB000002800D0E2E662B6A36822684146D01A35
:102DC00043425841C0B2FDF773FD002800D0D6E65B
:102DD000E36820685946C01A43425841C0B2FDF723
:102DE00067FDCCE6440F00202C040020585E00084C
:102DF000385D0008645E0008705E0008945E00089C
:102E0000B85E00083C040020D05E0008DC5E0008CC
:102E1000E85E000848040020E85D0008005F000844
:102E2000FFFF0000C046C046C046C046C046C04680
:102E300008B5011C72B6082002F042F962B608BD5E
:102E4000094B0A4A9B6970B590249A61E4052026D3
:102E50002025FA2065834000FFF7EAFFFA20268349
:102E60004000FFF7E5FFF4E7D40E0020145F0008F0
:102E700010B5041C3220FFF7DBFF72B60121201CC5
:102E8000FEF726F8FDF71CFE62B610BDC046C04630
:102E9000F8B556464D4644465F46F0B4454D464E5D
:102EA000AB69464A9C68631C9946A31C9A46022358
:102EB0003360434B49469846181C424B02F0A0F938
:102EC000414FA4235B003860181C514640443F4AE0
:102ED0003F4B02F095F9032333603E4B7860181C9A
:102EE0009846FEF7EDF8AB693B4F9868391C201AFD
:102EF00043425841C0B2FDF7DBFC002805D03CBC82
:102F000090469946A246AB46F8BD04236420336040
:102F1000FFF78EFFAB69391C98684B46181A43427D
:102F20005841C0B2FDF7C4FC0028E8D10523336046
:102F30002A4B181C9B46FEF7C3F8AB69391C9868EE
:102F40004B46181A43425841C0B2FDF7B1FC002865
:102F5000D5D1062364203360FFF76AFFAB69391CC3
:102F600098685346181A43425841C0B2FDF7A0FC76
:102F70000028C4D1072358463360FEF709F8AB692F
:102F8000391C98684B46181A43425841C0B2FDF7A5
:102F90008FFC0028B3D1082340463360FDF7F8FFCB
:102FA000AB69391C9868201A44426041C0B2FDF7F1
:102FB0007FFCA4E7D40E0020440F0020E12F00087E
:102FC00018050020045E0008840B00200130000872
:102FD0000C5E000818040020205E00080004002099
:102FE00010B53220FFF724FF034C201CFEF768F8D1
:102FF000201CFDF7CDFF10BD18040020C046C046C0
:1030000010B59620FFF714FF72B6054C201CFDF793
:10301000EFFF201CFDF794FFFDF752FD62B610BDD7
:1030200000040020C046C046C046C046C046C04658
:1030300008B53220FFF7FCFE72B60348FEF778FBB6
:10304000FDF73EFD62B608BD08050020C046C0463B
:1030500070B52F4E01232F4D33606C6A6420A4B2EB
:10306000FFF7E6FE201C6430673480B2A1B2FDF7A2
:1030700087FA002800D070BD022333606C6A642098
:10308000A4B2FFF7D5FE201C6430673480B2A1B231
:10309000FDF776FA0028EED1032333606C6A6420D2
:1030A000A4B2FFF7C5FE201C6430673480B2A1B221
:1030B000FDF766FA0028DED104233360FA206C6A3B
:1030C0008000FFF7B5FEFA23A4B29B00E018124B74
:1030D00080B2E418A1B2FDF753FA0028CBD1052342
:1030E00033606E6AB6B2341C6434A4B272B6696AD4
:1030F000611A89B2002902D0082001F0E1FF62B60E
:10310000311C673189B2201CFDF73AFAB3E7C0469B
:10311000440F002000040040EB030000C046C046FE
:1031200008B50120FFF784FE72B6024B586A62B6FA
:1031300080B208BD00040040C046C046C046C0463C
:10314000F8B51E4A4F464646C0B401239146136067
:10315000FFF7E6FF1A4F1B4C1B4E80460025201C34
:10316000FDF7AEFF201CFDF713FF201CFDF7A8FFA5
:10317000201CFDF70DFF201CFDF7A2FF201CFDF712
:1031800007FF201CFDF79CFF201CFDF701FF7B6A59
:1031900042469B1A9BB20135B342E0D94A4602230C
:1031A0000A481360FDF77CFAA800FDF791FA084879
:1031B000FDF756FA0CBC90469946F8BD440F002026
:1031C00000040040D0040020E7030000805D0008F8
:1031D0001C5F0008C046C046C046C046C046C04648
:1031E000F8B51E4A4F464646C0B4012391461360C7
:1031F000FFF796FF1A4F1B4C1B4E80460025201CE4
:10320000FDF7BEFD201CFDF75BFD201CFDF7B8FDA2
:10321000201CFDF755FD201CFDF7B2FD201CFDF71D
:103220004FFD201CFDF7ACFD201CFDF749FD7B6A1E
:1032300042469B1A9BB20135B342E0D94A4602236B
:103240000A481360FDF72CFAA800FDF741FA084878
:10325000FDF706FA0CBC90469946F8BD440F0020D5
:1032600000040040A80B0020E7030000805D000878
:103270002C5F0008C046C046C046C046C046C04697
:10328000F0B5474680B4051CFFF74AFF0B4F0C4EC4
:1032900080460024281C0121FDF7E2FD7B6A42469E
:1032A0009B1A9BB20134B342F4D9281C0021FDF7CC
:1032B000D7FD201C04BC9046F0BDC0460004004071
:1032C000E7030000C046C046C046C046C046C046F0
:1032D00070B54A4E4A4D01233360AA6972B6536BEA
:1032E000002B08D162B6474C0120211CFDF7E0FA03
:1032F00000280ED070BD584218408343536362B615
:10330000404C43425841C0B2211CFDF7D1FA00287D
:10331000F0D1AB6972B65A6B002A60D0586362B6BE
:10332000211CFDF7C5FA0028E4D1AB6972B65A6BCF
:10333000013257D062B60120211CFDF7B9FA0028EE
:10334000D8D102233360AE6972B6736B002B09D1FA
:1033500001235B4273620A20322101F0B1FE002892
:1033600043DB736B584218408343736362B6434236
:103370005841C0B2211CFDF79BFA0028BAD1AE69B2
:1033800072B6736B002B09D101235B4273620A2072
:10339000322101F095FE00282ADB736B0022726354
:1033A00062B658425841C0B2211CFDF781FA061E90
:1033B000A0D1AD6972B66B6B013308D001235B42BB
:1033C0006B620B20322101F07BFE002813DB00230F
:1033D0006B6362B6301C211CFDF76AFA8AE762B69D
:1033E00001209DE7586362B6A6E762B60120C1E7F7
:1033F00062B60120D8E762B60126EBE7440F002051
:10340000D40E0020505F0008C046C046C046C046EB
:10341000F0B54F4E01234F4D83B0336042244E49E7
:10342000201CFFF7EDF943425841C0B2291CFDF7BB
:103430003FFA002811D10134462CF0D1022301219A
:1034400058203360FFF7DCF9013043425841C0B2E5
:10345000291CFDF72DFA071E01D003B0F0BD72B68E
:103460003E4C636A002B6DDDA268013B636258210C
:10347000131DA36011606268934260D2201C10305B
:10348000FEF756F962B6381C291CFDF711FA002820
:10349000E3D101215820FFF7DBF9013043425841C5
:1034A000C0B2291CFDF704FA071ED6D172B6636AB2
:1034B000002B49DD013B6362E3682268043BE36063
:1034C000934202D26368043BE3605822201C1A60D6
:1034D0001030FEF72DF962B6381C291CFDF7E8F90B
:1034E0000028BAD103233360FEF76AF904230121CF
:1034F00001A83360FFF7D4F9013043425841C0B20C
:10350000291CFDF7D5F9061EA7D172B6A369002BB9
:103510001CDDE268013BA361131D1268E3600192A8
:103520006268934201D32368E360201C1C30FEF7DD
:10353000FFF862B6301C291CFDF7BAF98DE7236845
:10354000A3609BE701279DE70127C4E70126F0E779
:10355000440F0020B85E0008FFFF00002C0400208C
:10356000F0B54B4D85B0012301AC2B6000230194D5
:103570006460A36072B6039B464E581E0343D80F87
:10358000311CFDF795F9002802D062B605B0F0BDF8
:1035900062B60223201C00212B60FEF739F972B6B7
:1035A000039B311C581E0343D80FFDF781F90028F7
:1035B000EBD162B603232B60374B384A9B693848FE
:1035C0009968231C013901F01BFE364B1860042357
:1035D000201C2B60FDF7D4FB071C72B6039B311C2B
:1035E0005A1E1343D80FFDF763F90028CDD162B6F8
:1035F00078427841C0B22C49FDF75AF90028C5D16C
:1036000005232B6072B6A368002B39DDFDF758FA4D
:1036100062B672B6039B2549D817C31AD80FFDF7B7
:1036200047F90028B1D162B672B60398204E01382E
:1036300043425841C0B2311CFDF73AF90028A4D1E9
:1036400062B606232B6072B6A368002B1CDDFDF763
:1036500037FA62B672B6039B1649D817C31AD80F49
:10366000FDF726F9002800D08FE762B672B60398FE
:10367000311C013843425841C0B2FDF719F984E7C3
:10368000201CFEF755F8C1E7201CFEF751F8DEE7D5
:10369000440F0020605F0008D40E0020C1360008EF
:1036A00018050020840B00206C5F0008805F000874
:1036B0008C5F0008645F0008C046C046C046C04634
:1036C00008B572B68368002B03DDFDF7F9F962B621
:1036D00008BDFEF72DF8F8E7C046C046C046C04614
:1036E00030B5274C012587B02560FEF7E9F8054283
:1036F00001D1FDF775FA0223236072B6FEF7E0F8F8
:10370000C20701D4FDF76CFA62B603232360EFF31E
:103710001083DA0700D472B6EFF31083DA0700D40F
:1037200072B662B60423236072B6EFF31083DA0731
:1037300000D562B6EFF31083DA0700D562B6052331
:1037400023600023049372B6049B01AC002B02D0CB
:10375000201C01F02DFC201C01210A4A002301F04D
:1037600067FC62B60A20FFF763FB72B6049862B684
:10377000434258410449C0B2FDF79AF807B030BD42
:10378000440F0020A13E0008A05F0008C046C046CC
:10379000F8B5534C46464F46C0B4666FF04637689E
:1037A000F56935622A073DD1AA0617D480233B422A
:1037B00001D02B424CD16B0609D572B6626CA36C5A
:1037C0009A4200D168E040239F43376062B640468A
:1037D000FDF7E6F80CBC90469946F8BD72B6B38C7E
:1037E000DBB299466369002B5FD0236A626A934219
:1037F00060D06269013262615A1C22624A461A70C4
:10380000236AE269934244D2231CE0680C33984255
:1038100006D00268E260536000234362FDF708FBB4
:1038200062B6C3E72907C90FC901EB0701D52023F9
:103830001943AA0701D5402319436B0702D58023FA
:103840005B00194372B62748FDF762FB62B6ABE72F
:1038500072B6A36C626C9A4234D0A26B0132A2633E
:103860005A1CA2641B789946236C9A4201D3E36BDD
:10387000A364231C206B3033984206D00268226375
:10388000536000234362FDF7D3FA4A46328562B69D
:1038900091E7A3692362B7E7A36B002B00D192E7FE
:1038A000201D1021FDF734FB8DE7201D0421FDF7BD
:1038B0002FFB9AE76269002A9BD0201D8021FDF72B
:1038C00027FBADE7A26B002AC7D0201D0821FDF71A
:1038D0001FFBC0233A1C9A43402313433360D6E7AF
:1038E000540E0020580E0020C046C046C046C046B8
:1038F00008B572B609480021FDF70AFBFDF7E0F8AC
:1039000062B63220FFF794FA72B605480021FDF73F
:10391000FFFAFDF7D5F862B608BDC0465404002092
:1039200028040020C046C046C046C046C046C04627
:10393000F8B546464F46C0B4304D314E0123336092
:10394000AB69304A996830480139304B01F058FC76
:103950002F4B186072B62F4CAB6903205C6223605A
:10396000FDF7C6F9AB695A6A904662B622682A4FDB
:1039700050425041C0B2391CFCF79AFF002803D0D6
:103980000CBC90469946F8BD424650425041234BEC
:10399000C0B2191C9946FCF78BFF0028F0D1FEF746
:1039A0002FF90223336072B61D4BFA215E6AAB69B0
:1039B00089005C620320236001F082FBB6B2051C23
:1039C00062B6FA22174B9200B018F61880B2B1B264
:1039D000FCF7D6FD0028D3D12068391C434258415A
:1039E000C0B2FCF765FF0028CAD1681C4542684197
:1039F0004946C0B2FCF75CFFC2E7C046D40E0020C7
:103A0000440F0020E14C000818050020045E000867
:103A1000840B0020800B0020B45F0008685D000864
:103A200000040040E9030000C046C046C046C0464E
:103A3000F8B546464F46C0B4504E0123336072B6C7
:103A40004F4C0021201CFEF783FE62B64D4D013025
:103A500043425841C0B2291CFCF72AFF002803D07A
:103A60000CBC90469946F8BD2268474F101B434254
:103A70005841C0B2391CFCF71BFF0028F0D1A268E6
:103A800050425041414BC0B2191C9846FCF710FF00
:103A90000028E5D1022333603D4B3E4A9B693E48F6
:103AA00099680023013901F0ABFB3C4B186072B6FA
:103AB000FA21201C4900FEF74BFE814662B6FEF754
:103AC0009FF84A4650425041C0B2291CFCF7F0FE14
:103AD0000028C5D12368391C181B43425841C0B285
:103AE000FCF7E6FE0028BBD1A26841465042504197
:103AF000C0B2FCF7DDFE0028B2D103233360FFF72C
:103B00000FFB41268146301CFCF772FD72B6322154
:103B1000201CFEF71DFE62B6013043425841C0B280
:103B2000291CFCF7C5FE00289AD12368391C181BF4
:103B300043425841C0B2FCF7BBFE002800D08FE7DB
:103B4000A268414650425041C0B2FCF7B1FE002885
:103B500000D085E70136F6B2462ED4D1104811497F
:103B6000FCF776FE002800D07AE748464946FA304E
:103B7000FC3189B280B2FCF703FD71E7440F0020ED
:103B800008050020B85E0008C05F0008D05F00088C
:103B9000D40E00203130000818050020840B0020CE
:103BA000185E0008F05D0008C046C046C046C0462A
:103BB00038B572B60F4B9C696062251CA06A283527
:103BC000A84206D00268A262FDF732F9A06AA842B4
:103BD000F8D12223E35C002B08D12123E35C9A0770
:103BE00004D1226963691A61226953610F20FDF7CC
:103BF0007FF838BDD40E0020C046C046C046C0463F
:103C00000D4A10B510689169036801245A60136069
:103C100090612022845400248C548A6800E01B6840
:103C20009C689442FBD85A680B604A6011605960E6
:103C3000FCF7CEFA10BDC046D40E0020C046C046E8
:103C4000F0B50F4E0025371C80377368B4683168B3
:103C5000A3420AD21A1C01C901C2A242FBD3DA4311
:103C600012199208013292009B18F268934202D214
:103C700020C39342FCD31036BE42E6D3F0BDC0460B
:103C8000E45F0008C046C046C046C046C046C046C5
:103C9000FEE7C046C046C046C046C046C046C04615
:103CA0007047C046C046C046C046C046C046C04633
:103CB0007047C046C046C046C046C046C046C04623
:103CC000F0B5294C294E02218BB02460316072B6C8
:103CD000206800AB00902648236087690123029387
:103CE00000225B4201970392049362B672B6276882
:103CF000806905AD059725606860A960EA602B6161
:103D000062B672B623681B4F181B431E9841C0B29F
:103D1000391CFCF7CDFD002802D062B60BB0F0BD17
:103D200062B60323201C69463360FCF781FE72B63D
:103D30002368391C181B431E9841C0B2FCF7B8FD1C
:103D40000028EAD162B60423201C291C3360FCF74A
:103D50006FFE72B627680849381B44426041C0B202
:103D6000FCF7A6FDD9E7C04654040020440F00200C
:103D7000D40E00206460000870600008C046C04691
:103D8000F0B5454657464E46E0B4384D01238AB05B
:103D90002B6072B6364E374FB269386800A901926F
:103DA000029300225B42009039600392049362B652
:103DB00072B6314805AC016880460591B16904606E
:103DC000042061608246A060E260236162B6022343
:103DD0002B60FFF7A5F9B36981469968274A013935
:103DE000274B284801F00CFA274B186003232B605F
:103DF00001F036FB484649463230343180B289B250
:103E0000FCF7BEFB002805D00AB01CBC90469946C2
:103E1000A246F0BD01F0ACFA43425841C0B21B4982
:103E2000FCF746FD0028EFD1FDF7EAFE5246381CAC
:103E300069462A60FCF7FCFD211C4046FCF7F8FDB2
:103E40003B68134CD81B47427841C0B2211CFCF799
:103E50002FFD0028D8D1414609684246881A4342BE
:103E60005841211CC0B2FCF723FDCDE7440F0020D0
:103E7000D40E00205404002028040020F13800084B
:103E8000045E000818050020840B0020B45D0008C3
:103E900070600008C046C046C046C046C046C04626
:103EA00008B572B662B672B6FDF70AFDC30701D453
:103EB000FCF796FE62B608BDC046C046C046C04686
:103EC000F8B546464F46C0B4344F01233B60344BEF
:103ED000344C042698461D1C72B6E368201C2B60E7
:103EE000E560FDF725FCFCF7EBFD62B62369013EBA
:103EF000ED18002EF0D102233B602B4B042699468F
:103F00000020FEF745FC431E9841C0B24946FCF72D
:103F1000CFFC00283DD1013E002EF1D103233B60B0
:103F2000FEF736FC214E43425841C0B2311CFCF72B
:103F3000BFFC00282DD1042345463B6010235B19AC
:103F4000984672B6E368201C2B60E560FDF7F0FB35
:103F5000FCF7B6FD62B604354545F2D105233B605A
:103F600004240020FEF714FC431E9841C0B24946C9
:103F7000FCF79EFC00280CD1013C002CF1D106235B
:103F80003B60FEF705FC43425841C0B2311CFCF7D0
:103F90008FFC0CBC90469946F8BDC046440F0020EB
:103FA000E40B00206404002080600008485E0008E4
:103FB00010B5FCF7C5FE446A72B6211CFCF720FE62
:103FC00062B6002CF5D110BDC046C046C046C04602
:103FD000F8B546464F46C0B439493A4E01233A4CEB
:103FE0003360042288460B1C72B621682360196076
:103FF00062B66168013A5B18002AF5D10223334F9B
:1040000033600425201CFCF7EBFC431E9841C0B232
:10401000391CFCF74DFC00283CD1013D002DF1D1AD
:104020000323201C3360FCF7DBFC43425841284B40
:10403000C0B2191C9946FCF73BFC00282AD1042386
:10404000424633601032434672B6216823601960DD
:1040500062B604339342F7D1052333600425201C54
:10406000FCF7BEFC431E9841C0B2391CFCF720FC93
:1040700000280FD1013D002DF1D10623201C336013
:10408000FCF7AEFC43425841C0B24946FCF710FC75
:10409000002803D00CBC90469946F8BD0723336036
:1040A000042363600B4B201CA3602560FCF798FC85
:1040B000434258410849C0B2FCF7FAFBEAE7C04660
:1040C000E40B0020440F002058040020806000080A
:1040D000485E0008210300088C600008C046C04606
:1040E000F8B5284A4F4646460123C0B41360264B14
:1040F00091469B69254A996825480131002301F0C2
:104100007FF8244B4A4618600223041C1360FFF713
:1041100007F8214F214E8046002572B60021201C51
:10412000FCF76EFD201C0021FCF76AFD201C00211D
:10413000FCF766FD201C0021FCF762FD62B67B6A7D
:1041400042469B1A9BB20435B342E6D903234A4642
:10415000136072B60121201C4942FCF751FD62B682
:10416000FDF74EFD4A4604230D481360FCF798FA0C
:104170006800FCF7ADFA0B48FCF772FA0CBC9046ED
:104180009946F8BD440F0020D40E0020210D0008F0
:1041900018050020840B002000040040E703000005
:1041A000805D0008A8600008C046C046C046C04602
:1041B000F8B51C4B5F469B6956469B684D46444686
:1041C000194A0133F0B49A46012313609346FEF76F
:1041D000A7FF164B164F174E174D814600249846E1
:1041E0003A1C00235146404601F00AF8FDF7C0FC96
:1041F000736A4A469B1A9BB20134AB42F0D95A46C5
:1042000002230E481360FCF74BFA201CFCF760FAFF
:104210000B48FCF725FA3CBC90469946A246AB46B3
:10422000F8BDC046D40E0020440F00201805002021
:10423000315B000800040040E7030000805D0008D7
:10424000B4600008C046C046C046C046C046C0462E
:10425000F8B51C4B5F469B6956469B684D464446E5
:10426000194A013BF0B49A46012313609346FEF7C6
:1042700057FF164B164F174E174D81460024984690
:104280003A1C00235146404600F0BAFFFDF7A0FC5F
:10429000736A4A469B1A9BB20134AB42F0D95A4624
:1042A00002230E481360FCF7FBF9201CFCF710FA00
:1042B0000B48FCF7D5F93CBC90469946A246AB4664
:1042C000F8BDC046D40E0020440F00201805002081
:1042D000315B000800040040E7030000805D000837
:1042E000B4600008C046C046C046C046C046C0468E
:1042F000F0B5474680B42E4A012382B013600023F4
:1043000090460193FEF70CFF2A4E2B4FB3692B4DBD
:1043100099682A1C01AB0139381C00F071FF284C48
:10432000A4235B002060F818B3692A1C996801ABCC
:10433000013900F065FFB369A422996892006060BA
:1043400001ABB81801392A1C00F05AFFF6239B0074
:10435000A060F818B3692A1C996801AB013900F014
:104360004FFFB369A4229968D2000139E06001AB24
:10437000B8182A1C00F044FF2061FA2042460223AC
:1043800080001360FEF754FDFCF71AF9FDF738FCC6
:10439000032342460B481360FCF782F90198FCF7AF
:1043A00097F90948FCF75CF902B004BC9046F0BDEF
:1043B000440F0020D40E00201805002051050008ED
:1043C000840B0020805D0008A8600008C046C0463D
:1043D000F8B54F464646C0B43A4A3B4E01231360F7
:1043E000B3693A4F3A4D9968914605312A1C381CF9
:1043F000002300F005FF374CA4235B002060F81871
:10440000B3692A1C99680023043100F0F9FEB369EE
:10441000A4229968920060600331B81800232A1C16
:1044200000F0EEFEF6239B00A060F818B3692A1C8A
:1044300099680023023100F0E3FEB369A422996871
:10444000D200E0600131B81800232A1C00F0D8FE29
:1044500002234A4620611360FEF762FE1E4F1F4D85
:104460001F4E80460024281C0021FDF7D1F97B6AED
:1044700042469B1A9BB20134B342F4D94A46032305
:104480001360FCF79DF80021281CFDF7C1F9FDF72A
:10449000B7FB4A46042313481360FCF701F9201CBC
:1044A000FCF716F91048FCF7FBF8600004196000EF
:1044B000FCF70EF90D48FCF7D3F80CBC9046994672
:1044C000F8BDC046440F0020D40E0020180500207F
:1044D000C10D0008840B002000040040A80B002040
:1044E000E7030000805D0008C0600008A8600008C5
:1044F000F0B5474680B42D4D2D4F01233B60AB698D
:104500002C4E9968301C01312B4A002300F078FEB4
:1045100002232A4C3B60A4235B002060F018AB69A7
:104520009968274B023998461A1C002300F068FE50
:10453000A4239B006060F018AB6942469968002391
:10454000033900F05DFEF6239B00A060F018AB6914
:10455000424699680023043900F052FEA423DB0090
:10456000E060F018AB69424699680023053900F015
:1045700047FE0323206120683B60FEF781FE041C98
:10458000FDF73EFB04230F483B60FCF789F8201C35
:10459000FCF79EF80C48FCF783F86000FCF798F8ED
:1045A0000A48FCF75DF804BC9046F0BDD40E00202C
:1045B000440F002018050020B13F0008840B0020A4
:1045C000315B0008805D0008D4600008A860000826
:1045D00038B5134C01232360124B134A9B691348CF
:1045E00099680023013100F00BFE114B1860022383
:1045F0002360FEF745FE051CFDF702FB03230D4873
:104600002360FCF74DF8281CFCF762F80A48FCF719
:1046100047F86800FCF75CF80848FCF721F838BD5B
:10462000440F0020D40E0020B13F000818050020E0
:10463000840B0020805D0008D4600008A86000089A
:1046400038B5134C01232360124B134A9B6913485E
:1046500099680023013900F0D3FD114B1860022343
:104660002360FEF70DFE051CFDF7CAFA03230D4873
:104670002360FCF715F8281CFCF72AF80A48FCF719
:104680000FF86800FCF724F80848FBF7E9FF38BD8D
:10469000440F0020D40E0020B13F00081805002070
:1046A000840B0020805D0008D4600008A86000082A
:1046B000F8B53C4F01233B603B4B3C4D191C10317E
:1046C00004CB72B6286810602A6062B68B42F7D1BC
:1046D000374B384A9B6938489E680323711E3B60FC
:1046E000FCF7BEFA354CB11E2060354A3548FCF760
:1046F000B7FAF11E6060344A3448FCF7B1FA311F52
:10470000A060334A3348FCF7ABFA711FE060324ACD
:104710003248FCF7A5FA04233B6023682061002B94
:104720003ED0606800283BD0A368002B38D0E068FA
:10473000431E9841C0B22A49FCF7BAF8002800D0BD
:10474000F8BD2069274943425841C0B2FCF7B0F890
:104750000028F5D105233B60FDF752FA2248234992
:10476000FCF776F80028EBD10623214E3B600424A9
:10477000281CFCF735F9431E9841C0B2311CFCF7E8
:1047800097F80028DCD1013C002CF1D1281CFCF763
:1047900027F9434258411749C0B2FCF789F8CFE7DF
:1047A0000020C8E7440F00203C5F0008D80B002021
:1047B000D40E0020045E0008E0600008840B002096
:1047C0000C5E0008E8600008085E0008F060000861
:1047D000145E0008F86000081C5E00080061000814
:1047E0000861000820610008E85D0008F05D00082D
:1047F0003C6100084C610008C046C046C046C04647
:10480000F0B54F464646C0B4424B434E9B6985B017
:10481000424C9F6869460223301C01AA2360FCF7C2
:1048200037FD051C013843425841C0B23C49FCF7F2
:104830003FF8002804D005B00CBC90469946F0BD66
:104840000323A42023607A1E3649374B4000FCF72F
:10485000CFFC364A10609046354A431E9841C0B29C
:10486000111C9146FCF724F80028E4D10423A4206D
:1048700023603049304BBA1E4000FCF7B9FC434678
:104880005860431E9841C0B24946FCF711F8002811
:10489000D1D105232360FA1E2849294B2948FCF76A
:1048A000A7FC4246906043425841C0B22649FBF7FC
:1048B000FFFF0028BFD106232360FDF7A1F923489D
:1048C0002349FBF7C5FF0028B5D1072302A9301CF7
:1048D00003AA2360FCF7DCFC281A45426841C0B2F9
:1048E0001C49FBF7E5FF0028A5D1009B029A1A4955
:1048F000981A43425841C0B2FBF7DAFF00289AD118
:10490000019B039A1549981A43425841C0B2FBF7DC
:10491000CFFF90E7D40E0020B80B0020440F0020FA
:10492000C05C0008E0600008045E0008840B002002
:1049300008610008E86000080C5E0008F0600008EC
:10494000085E0008C80002002061000860610008DD
:10495000F05D0008646100087C610008986100084F
:1049600070B52B4C012305202360FCF751F802237E
:10497000236000F075FD053843425841C0B2254917
:10498000FBF796FF002800D070BD00F0F1FC224D2F
:1049900043425841C0B2291CFBF78AFF0028F3D1DB
:1049A000032304202360FCF733F804232360FEF77D
:1049B000B7FB1A4B061C9B69194A996819480139BB
:1049C00000F01EFC184B18600523236000F048FD22
:1049D000331C32333436041CB1B298B2FBF7D0FD2D
:1049E0000028D1D1601F44426041C0B20F49FBF79B
:1049F0005FFF0028C8D100F0BBFC43425841C0B261
:104A0000291CFBF755FF0028BED1FDF7F9F8BBE7DD
:104A1000440F00209C5D0008B45D0008D40E002007
:104A2000712E000818050020840B0020B8610008D2
:104A3000044B00220421DA6019615A611B605B603B
:104A40009A60704764040020C046C046C046C04615
:104A5000024B00221B605B609A60704708050020D3
:104A6000024B00221B605B609A60704708050020C3
:104A7000024B01221B605B609A60704708050020B2
:104A8000094B0A4A1A60DA609A6010325A601A1C9E
:104A90001C32DA611A6204225A621A1C10321A613C
:104AA0005A6100229A6170472C040020980B002064
:104AB000044B00220421DA6019615A611B605B60BB
:104AC0009A60704764040020C046C046C046C04695
:104AD000024B01221B605B609A607047A80B0020AC
:104AE000024B00221B605B609A607047A80B00209D
:104AF000024B00221B605B609A6070470805002033
:104B0000034B002204211A6059609A607047C04626
:104B100058040020C046C046C046C046C046C046F5
:104B200072B6074B00209968002901D062B6704721
:104B3000044A01209269916B9A60D9609363F5E70A
:104B400018040020D40E0020C046C046C046C0460F
:104B5000F8B546464F46C0B4224EF0463369980732
:104B600006D44046FBF71CFF0CBC90469946F8BDA6
:104B70000023336172B61C4C706AE369E18C80B229
:104B8000451A1A89ADB295421AD3251C00271C3547
:104B9000B9468A18E2841A6848465560D968E261C5
:104BA000D860AA421AD062B61869884772B6706A8D
:104BB000E369E18C80B2471A1A89BFB2BA42E8D9D8
:104BC0000A4CA34208D08A18121A92B2012A07D9B5
:104BD0001218044B92B25A6362B6C2E7F060E2E781
:104BE0000222F5E700040040D40E0020F00E002061
:104BF000F0B54E4645465746E0B4334D334AAB69AF
:104C000090469C68A61C671C9E60381C022313609B
:104C1000FBF77EFF001B434258412D4BC0B2191CCD
:104C20009946FBF745FE002804D01CBC90469946E7
:104C3000A246F0BDAB699868301A46427041254ED5
:104C4000C0B2311CFBF734FE0028EED1AB6922491B
:104C5000D86B381A43425841C0B2FBF729FE0028EE
:104C6000E3D1032342461360E31C181C9A46FBF76A
:104C70004FFF381A47427841C0B24946FBF718FE49
:104C80000028D2D1AB6952469868311C101A4342B1
:104C90005841C0B2FBF70CFE0028C6D1AB690F49E2
:104CA000D86B5346181A43425841C0B2FBF700FE76
:104CB0000028BAD104234246136072B6AB699C60E7
:104CC000DC6362B6B1E7C046D40E0020440F00207A
:104CD000805C0008A45C0008CC610008F461000856
:104CE00010B5041C72B6084A1068002804D00021D0
:104CF00041621160FCF79CF8FBF7E2FE62B6207897
:104D0000FBF776FC10BDC046800B0020C046C046B5
:104D100038B572B6124CA3680133A360002B15DDC1
:104D2000013BA360002B04DBFBF7CAFE002062B648
:104D300038BD0C4B05209D6963682C606B601D605D
:104D400065606C62FBF7D4FF686AF0E7206803686F
:104D500023605C60FCF76CF800234362A368DFE724
:104D600008050020D40E0020C046C046C046C046FC
:104D7000F8B55F4656464D464446F0B4534D544C44
:104D8000AB699F6802232360FFF7CAFE514E311CB6
:104D9000FBF78EFD002805D03CBC90469946A24604
:104DA000AB46F8BD03232360FFF7BAFE012291460C
:104DB0004B46494A5840C0B2111C9046FBF778FD5B
:104DC0000028E9D104232360444B9A46181CFCF7C1
:104DD000DFF85246926850425041414BC0B2191C14
:104DE0009B46FBF765FD0028D6D152461268534614
:104DF000D01A43425841C0B23A49FBF759FD002846
:104E0000CAD105232360AB6937499868381A4342F1
:104E10005841C0B2FBF74CFD0028BDD106232360EA
:104E2000FFF77EFE311CFBF743FD0028B4D1FFF7EE
:104E300077FE4B465840C0B24146FBF739FD00288B
:104E4000AAD1AE6972B6B36B002B1AD0002290467D
:104E50000BE002681A605360826B9860DA608363CB
:104E6000FBF7E6FFB36B002B07D0DA681868B26374
:104E70008342EED142469A60F4E7F36BB360FBF7EE
:104E80001FFE62B652469268594650425041C0B227
:104E9000FBF70EFD002800D07EE753461B68524604
:104EA000981A43425841C0B20E49FBF701FD002851
:104EB00000D071E707232360AB690B499868381A63
:104EC00047427841C0B2FBF7F3FC65E7D40E0020FF
:104ED000440F002014620008246200081804002017
:104EE00030620008C05F0008205E0008C046C0466F
:104EF000F8B5154D071C281CFCF7E2F872B6134BE9
:104F00009C69A66B301CFCF71BF8114A6262131CEB
:104F100003E09868A168884202D31B689342F8D1E5
:104F20005A6823606260072014605C60FBF7E0FE53
:104F3000301CFCF75DF862B63878FBF759FB281C8B
:104F4000FCF726F8F8BDC04618040020D40E002057
:104F500010040020C046C046C046C046C046C046F9
:104F6000F8B50F4B01221A600024072501260D4FCA
:104F700002E00134002D0DD02B1CE3401E42F8D07E
:104F8000331CA3409D43A300201CDB5998470134E8
:104F9000002DF1D104490548FBF75AFCF8BDC04685
:104FA000440F002044620008F05D0008105E000815
:104FB0001B4A10B5D36983420ED0416803681C3286
:104FC0000B60036859600021C160934203D00189DE
:104FD0001A898A181A8110BD1968101C1C30002407
:104FE000D1614860DC60814217D018890B89C318F1
:104FF0009BB20B810B49D28C496A89B28A1A92B250
:105000009342E8D99B1A9BB2012B04D95B18054A3D
:105010009BB25363DFE70223F8E7024BDC60DAE779
:10502000D40E002000040040C046C046C046C04622
:1050300003611E4BC2605A6A70B592B2012924D92D
:105040001B4D2C1CEB691C34A34220D08918EA8C20
:1050500089B28A1A1C8992B2A24204D212E01B6859
:10506000121B1C8992B29442F9D3596803604160C3
:1050700008605860028119898A1A1A8101235B42EB
:10508000AB8470BD094E7163EDE70221D8E7EA8475
:10509000E86128628A1803604360044B92B2018180
:1050A0005A6300221A610222DA60EAE70004004033
:1050B000D40E0020C046C046C046C046C046C046CA
:1050C00030B50E4B87B0051C994212D00C4C01A88C
:1050D000A3690C4AFFF7ACFF281CFBF709FE049BF1
:1050E000002B02D001A8FFF763FFA369586A07B03D
:1050F00030BDFBF7FDFD024CF7E7C046FFFF0000A7
:10510000D40E0020F1030008C046C046C046C04689
:1051100008B500290AD0074B42689B6918605A609D
:10512000136043600420FFF7CBFF08BD012040421D
:10513000FBE7C046D40E0020C046C046C046C0466D
:10514000F0B556464D4644465F46F0B4151CC2695C
:1051500083B0041C0E1C9A46914672B6244B00275D
:105160005B6A53449BB201935346013B9BB29B46FF
:10517000A368002B1ED0A368013BA36063695A1C7F
:105180006261721C904632781A7063692269934298
:1051900001D3E36863614A46002A01D0201CC84756
:1051A00062B6013D0137002D14D072B6A3684646A1
:1051B000002BE0D10F4B9B4514D80D4B019A596A37
:1051C000511A89B28A4504D3201CFFF7A1FF002899
:1051D000CED062B6381C03B03CBC90469946A2467D
:1051E000AB46F0BD201C5146FFF792FFEFE7C046EB
:1051F00000040040FDFF0000C046C046C046C04657
:1052000038B572B6441C051CFF34DC35E061E5603E
:105210002A616B619022184B52002B628318022284
:10522000A1601A702223FF33C21800231370912249
:105230005200A363636383180122E1631A700F4B6A
:105240000021A3610E4B5A692361626114615C61A4
:1052500094235B00C21894235B00C2509622520034
:1052600083189622520083505B60201CFBF7C8FC19
:1052700062B6201C38BDC046F10100083C6200083F
:10528000D40E0020C046C046C046C046C046C046F8
:10529000F8B51F4D01232B601E4B1F4A9B691F4809
:1052A000996800230131FFF7ABFF1D4B1860022303
:1052B0002B60FFF72DFD1B4C1B4E2268311C101B71
:1052C00043425841C0B2FBF7F3FA002800D0F8BDC2
:1052D000A268164F50425041C0B2391CFBF7E8FAA1
:1052E0000028F4D103232B60FFF712FD2368311C43
:1052F000181B43425841C0B2FBF7DAFA0028E6D146
:10530000A068391C43425841C0B2FBF7D1FADEE72E
:10531000440F0020D40E0020110E000818050020B4
:10532000840B002008050020C05F0008D05F000843
:1053300008B572B6054B1868984205D0026800217E
:105340001A605360FBF75CFC62B608BD10040020D5
:1053500008B5064B1868984206D0026853601A6078
:1053600000234362FBF764FD08BDC0461004002023
:1053700072B6034B00229B69586B5A6362B6704742
:10538000D40E0020C046C046C046C046C046C046F7
:1053900008B5FFF7EDFF08BDC046C046C046C04691
:1053A00008B5FFF7E5FF08BDC046C046C046C04689
:1053B00008B5FFF7DDFF08BDC046C046C046C04681
:1053C00008B5FFF7D5FF08BDC046C046C046C04679
:1053D00008B5FFF7CDFF08BDC046C046C046C04671
:1053E00008B5FFF7C5FF024B1B60024B1B6008BDF1
:1053F0005404002028040020C046C046C046C046D1
:10540000094B10B59C6972B6636B002B06D1012362
:105410005B4263620A20FBF76BFC636B58421840E7
:105420008343636362B610BDD40E0020C046C046FD
:10543000084B10B59C6972B6606B002806D1012339
:105440005B420A206362FBF753FC606B00236363DB
:1054500062B610BDD40E0020C046C046C046C0464D
:105460000A4B10B59C6972B60522636B111C19407A
:10547000052904D062620B20FBF73AFC636B05221E
:105480009343636362B6052010BDC046D40E00206E
:10549000F0B5A64B01219A6A4942002244465F4674
:1054A00056464D46F0B499629A62186919611A61BC
:1054B000D9689F4883B00143D960DA60D8698021F8
:1054C00049050143D9619B4980200C684000204375
:1054D0000860186AC021890008408021890088423C
:1054E00003D08021490219621A62904B8022196A06
:1054F0001202114207D1186A802189000143196202
:10550000196A0A431A62894CBC236269DB0313439C
:105510006361894990230022DB055A6099608749BD
:10552000874FD9608749012659618821490119624D
:1055300085495A621960854B8549764280205A60B8
:1055400083469E60D9605F611A625A621860814B1F
:1055500081485A609E60D8605F611A625A621A6020
:105560007E4B01205A609E60D9605F617C491A625F
:105570005A621A607B4B5A609A60D9605F611A6206
:1055800079495A621A60794B784D02C36B602B1CC3
:105590000C33EB602B612B1C744954336A61287205
:1055A000AB616B622B62714B6435CD618A62C962FB
:1055B000303119635963DD639D645D6410216B4D67
:1055C000996374332B646A4BC721EB64694B890080
:1055D0006B67694B2D65AB67684B8A465D58FF2149
:1055E0008D43A9468846C025494629435546595109
:1055F000C02149008C4680214905654659511960F2
:10560000E1690225A94629435D4DE161A9684D463E
:1056100029435B4DA9605B495B4D8D62CF628A6116
:105620004A63CA604A6048610860C42189005F58C3
:105630004546AF435D462F435F5080214902654692
:1056400059511960514B5D46191C1C31D9611962C1
:105650009E844F494F4E9A600E604F4E4F49DA84F8
:105660000E604F494F4E1B605B600E600E1C103683
:105670008A60CA600E614E618A615946596300268C
:105680004D215E544E2158549D6647491D1C54358A
:1056900059645D65191C1D1C2C315A661A665835F3
:1056A0009A644C229854196159619961DB631B64B7
:1056B0009D65DD653D4B3E4A196A0A401A6262B635
:1056C00072B63C48FBF7C4F90021FBF799FA62B6C1
:1056D00072B6264D2B7A012B04D1E26980239B02FE
:1056E0001343E361214D9621A86F09020090FAF758
:1056F0008FFD6C6F0023E06063600123A3602E23A5
:10570000FF33236001235B42236202232B7262B6C4
:105710008021294A29480023FFF772FD2849294A98
:10572000294C2A4E8A46934656E0C0460010024055
:10573000FFFFBFFF007000405FF7FFFF0551556599
:10574000FFFF0000DFFF0000A00400280004004865
:10575000555555550008004855555501000C004851
:105760005055555500140048FC650008540E0020A3
:105770009103000800440040006CDC0200E100E0FE
:1057800000580140000400407FBB0000D40E002000
:105790004C0F0020500F002000200020480F002058
:1057A000300E0020B1030008DC62000800ED00E0CC
:1057B000FFFF00FFCC640008412E0008D00C002041
:1057C0001C0E0020440F00202C0E0020180E00207C
:1057D000FA204000FDF72CFB8C4D80202B698001C6
:1057E0000342F5D18A4D8B482560FAF739FF8A4884
:1057F000FAF736FF8948FAF733FF894D2A212068E6
:10580000013503689B6898476B1E19780029F6D10B
:105810008448FAF725FF844D2A2120680135036862
:105820009B6898476B1E19780029F6D17F48FAF7D4
:1058300017FF2A257E4F291C2068013703689B68C3
:1058400098477B1E19780029F6D17A480D1CFAF783
:1058500007FF7048FAF704FF77480570774D2B680B
:10586000002B00D1B1E0A94600250195019D01352D
:1058700001950025A84640468700DB59002B00D142
:105880009CE0FBF775F86E4D2D212068013503680B
:105890009B6898476B1E19780029F6D10198FAF792
:1058A00017FF20682E2103689B68984701208044D9
:1058B0004046FAF70DFF634D20212068013503684B
:1058C0009B6898476B1E19780029F6D148460068F6
:1058D000C3591D682978002907D02068013503685D
:1058E0009B68984729780029F7D15748FAF7B8FEFE
:1058F000C820FDF79DFA49460968544BCD59002050
:1059000018706B6852463260002B00D09847E968E7
:105910008847AB68002B00D098474C4D2B78002B64
:105920006BD04B4D2D212068013503689B6898474B
:105930006B1E19780029F6D159460868FAF7C8FE97
:10594000444D20212068013503689B6898476B1EF1
:1059500019780029F6D130685546013550450AD9E5
:1059600020686A1E036811789B68984731682F1C6D
:1059700001358F42F4D3384D5D212068013503682D
:105980009B6898476B1E19780029F6D1334A156831
:105990002978002907D02068013503689B6898475B
:1059A00029780029F7D12E48FAF75AFE4D462B6880
:1059B00040468700DB59002B00D062E70421894470
:1059C0004A461368002B00D050E7FAF7D1FF114880
:1059D000FAF746FE234D46212068013503689B688F
:1059E00098476B1E19780029F6D1134D2B78002BA0
:1059F00007D11D48FAF734FEEAE61C48FAF730FEF4
:105A0000D4E71B48FAF72CFEE2E6C046000800483F
:105A1000540E0020D0600008AC660008C86600087C
:105A2000CD6600085C670008756700088867000895
:105A3000B5670008E0660008500E00207C040020D6
:105A40000D670008C96700081C670008510E002098
:105A500021670008CD67000839670008D00E0020D4
:105A60003C670008D16700084C67000840670008E1
:105A700054670008C046C046C046C046C046C0463F
:105A80002748012302680221134303600368244A64
:105A90001942FBD0536803218B4353605368101C99
:105AA00053600C2143681E4A0B40FBD11168F9205A
:105AB000014011605360516B01230B43536302207B
:105AC000536B17491842FBD04A6A012313434B62B8
:105AD00002204B6A124A1842FBD0A0239B0353605A
