:020000040800F2
:1000000000040020010100086104000871040008D8
:1000100071040008710400087104000871040008EC
:1000200071040008710400087104000871040008DC
:1000300071040008710400087104000871040008CC
:1000400071040008710400087104000871040008BC
:1000500071040008710400087104000871040008AC
:10006000710400087104000871040008710400089C
:10007000710400087104000871040008210A0008D6
:10008000710400087104000871040008710400087C
:10009000710400087104000871040008710400086C
:1000A0007104000871040008710400089108000838
:1000B000710400087104000871040008710400084C
:1000C0000000000000000000000000000000000030
:1000D0000000000000000000000000000000000020
:1000E0000000000000000000000000000000000010
:1000F0000000000000000000000000000000000000
:1001000072B6244880F30888234880F309880220C7
:1001100080F31488BFF36F8F00F0BAFE00F010FE7A
:100120001E481F491B4A914202DA08600431FAE76F
:100130001C49194A914202DA08600431FAE71A4967
:100140001A4A1B4B9A4204DA0868106004310432E0
:10015000F8E700201749184A914202DA0860043192
:10016000FAE700F05DFE00F08BFE144C144DAC423B
:1001700003DA216888470434F9E700F0B1FC114C38
:10018000114DAC4203DA216888470434F9E70F497E
:100190000847000000040020000500205555555573
:1001A0000000002000040020C80F00080005002007
:1001B00000050020000500201809002000010008AB
:1001C000000100080001000800010008710E00088D
:1001D000F0B544464D4656465F46F0B46B460B605C
:1001E00003689D46F0BCA046A946B246BB46F0BD9A
:1001F00062B6281CA047002300F00AFE00F0F8FDBC
:10020000014A024B1360FEE704ED00E000000080AD
:10021000002934D00123002210B488422CD30124B9
:100220002407A14204D2814202D209011B01F8E74E
:10023000E400A14204D2814202D249005B00F8E707
:10024000884201D3401A1A434C08A04202D3001B33
:100250005C0822438C08A04202D3001B9C08224366
:10026000CC08A04202D3001BDC082243002803D0A4
:100270001B0901D00909E3E7101C10BC70470028D6
:1002800001D00020C04307B4024802A140180290E8
:1002900003BDC0461D0000000029F0D003B5FFF7E4
:1002A000B9FF0EBC4243891A1847C046000000003F
:1002B0007047C04600000000000000000000000081
:1002C00010B582B072B64A1E10180A4A4B42146822
:1002D0001840013C61181940074B1B6801935B1AD9
:1002E000984205D808181060081C62B602B010BD0C
:1002F0000020FAE7A4060020A0060020C046C04661
:10030000024B802219680A431A6070470038014086
:100310000368002B00DB70470A4A9169131C1033F5
:10032000884203D0143399688842FBD101680131B7
:100330000160002119719960D96051688B42EAD23D
:100340005360E8E720050020C046C046C046C046CE
:10035000F0B556464D4644465F46F0B407230221A9
:1003600099460F259023032683B000220124A84636
:10037000DB05B4468A4608E01D6A019EBD432E4354
:100380001E6240082BD0890001320442F9D04D464C
:100390001540AD00261CAE4047460196AF405E6852
:1003A000251C9540AE435E609E686546B346560088
:1003B000B540ED435E462E409E60DE682E40DE6016
:1003C000022913D01E6835400D431D60072AD3D97A
:1003D0005D6A019EBD432E435E624008D3D103B0E7
:1003E0003CBC90469946A246AB46F0BD072A0BD8C6
:1003F0001E6ABE43371C019E3E431E621E68354086
:10040000564635431D60BCE75E6ABE43371C019EFD
:100410003E435E62F2E7C046C046C046C046C046A4
:100420000F3010D072B6EFF309831A1C203A82F312
:10043000098880235B04D361054B19685B68994286
:1004400002D1044B93617047034B9361FBE7C046B5
:100450002005002000020008FD010008C046C0463B
:10046000EFF30983203383F3098862B67047C046EF
:10047000FEE7C046C046C046C046C046C046C0466D
:1004800070B51E4C2268107100290ED001291DD9AB
:100490008026F605736AE068C918A368834223D0F2
:1004A000CD1AC31A9D421BD3D560237D201C10306A
:1004B000002B03D014300379002BFBD1111C60609A
:1004C0002060FFF785FE2368986870BD8026F605DA
:1004D000736A0221C918E068A3688342E0D103E08F
:1004E0007163E160D560E0E700207163CD1A30618F
:1004F0000220F060E160D560D7E7C046200500200B
:1005000008B50368002B03DD013B0360002008BD34
:100510004A1C08D0013B0360044B1B689860032011
:10052000FFF7AEFFF3E7081CF1E7C0462005002007
:1005300038B5041C0D1C72B605E0201C291CFFF701
:10054000DFFF002816DB6368002BF6D06368626962
:10055000013B6360531C63611578E268934201D3E9
:10056000A3686361A369002B01D0201C984762B681
:10057000281C38BD62B6FCE7C046C046C046C0462F
:1005800008B51430FFF7D4FF08BDC046C046C046CA
:1005900008B514300021FFF7CBFF08BDC046C046A8
:1005A000F0B556464D4644465F46F0B40E1C816990
:1005B00083B0041C151C9A46894672B68023DB055D
:1005C0005A6A0027524401925246013A00929B46D1
:1005D0006368002B1ED06368711C013B6360636914
:1005E00088465A1C62611B7833706269E3689A42DC
:1005F00001D3A16861614A46002A01D0201CC84786
:1006000062B6013D0137002D13D072B663684646CD
:10061000002BE0D1009B033313D85A46516A019B4B
:10062000591A8A4504D3201CFFF76AFF0028CFD04F
:1006300062B6381C03B03CBC90469946A246AB4615
:10064000F0BD201C5146FFF75BFFEFE7C046C046F8
:1006500008B51430FFF7A4FF08BDC046C046C04629
:1006600008B514300023FFF79BFF08BDC046C04605
:1006700070B5041C0E1C151C72B605E0201C291C4C
:10068000FFF73EFF002817DB6368002BF6D0636896
:10069000013B636023695A1C22611E702269E36872
:1006A0009A4201D3A2682261A369002B01D0201CC9
:1006B000984762B6002070BD62B6FCE7C046C046EF
:1006C00008B53430FFF7D4FF08BDC046C046C04669
:1006D00008B534300022FFF7CBFF08BDC046C04646
:1006E000F0B556464D4644465F46F0B40E1C81694F
:1006F00083B0041C151C9A46894672B68023DB051C
:100700005A6A0027524401925246013A00929B468F
:100710006368002B1ED06368711C013B6360236912
:1007200088465A1C226132781A702269E3689A421C
:1007300001D3A16821614A46002A01D0201CC84784
:1007400062B6013D0137002D13D072B6636846468C
:10075000002BE0D1009B033313D85A46516A019B0A
:10076000591A8A4504D3201CFFF7CAFE0028CFD0AF
:1007700062B6381C03B03CBC90469946A246AB46D4
:10078000F0BD201C5146FFF7BBFEEFE7C046C04658
:1007900008B53430FFF7A4FF08BDC046C046C046C8
:1007A00008B534300023FFF79BFF08BDC046C046A4
:1007B00008B5011C72B60120FFF762FE62B608BDE3
:1007C00070B580256D00064C2E1CFA202683400053
:1007D000FFF7EEFFFA2065834000FFF7E9FFF4E73B
:1007E00000080048C046C046C046C046C046C04695
:1007F00070B58025AD00054C2E1C2683FA20FFF72E
:10080000D7FF6583FA20FFF7D3FFF6E7000800481B
:1008100038B572B61A4C237C012B29D09621A06DD5
:100820000902FFF7F5FC656D4023E8606B6001236A
:10083000AB602E23FF332B6001235B425C222B62D3
:10084000A3540223237462B680208000FFF780FD4A
:100850008020C000FFF77CFD0A4D2368201C1B6828
:10086000291C0E229847FA20C000FFF7A1FFF4E7E9
:10087000054B80229969D2010A439A61CEE7C046AE
:10088000B8080020100F000800100240C046C04603
:10089000F8B5604C46464F46C0B4666DF0463768C2
:1008A000F56935622A074ED1EB050BD572B6802368
:1008B00062689B0013436360A368002B01D0201D76
:1008C000984762B6AA0617D480233B4201D02B4238
:1008D00055D16B0609D572B6626CA36C9A4200D1F1
:1008E00069E040239F43376062B64046FFF798FDBA
:1008F0000CBC90469946F8BD72B65C23726AE35C04
:100900001A40A3699146002B08D16268042313435F
:100910006360A368002B01D0201D9847636AA26A18
:10092000934257D0A2690132A2615A1C62624A46C0
:100930001A70636A226A93423AD2201C1430FFF77D
:10094000E7FC62B6C0E72B07DB0FDB01EA0701D546
:1009500020221343AA0701D5402213436A070AD471
:1009600072B6626813436360A368002B01D0201D38
:10097000984762B698E7802252001343F0E772B6B8
:10098000A36C626C9A4232D0A26B0132A2635A1CF1
:10099000A2641B789946236C9A4201D3E36BA3644B
:1009A000201C3430FFF7B4FC4A46328562B690E72B
:1009B000E3696362C1E7A36B002B00D191E7626832
:1009C000102313436360A368002B00D189E7201D27
:1009D000984786E7A269002AA4D06268802313435F
:1009E0006360A368002BACD0201D9847A9E7A26BD9
:1009F000002AC9D06268082313436360A368002BF0
:100A000001D0201D9847C0233A1C9A43402313432A
:100A10003360CBE7B8080020C046C046C046C04699
:100A2000F0B58023DB051A69474680B4704691070C
:100A300004D4FFF7F5FC04BC9046F0BD00221A6117
:100A400072B6254A0124111C0025131C6442161C91
:100A500018311033A046AC464C36DC68002C16D05A
:100A6000DC689768E419D768E41BDC60DC68002C5C
:100A70001CD11F79032F2AD0022F1FD0444667466E
:100A80000C601F7157686446DC60BB4214D362B6C9
:100A9000143372B61431B342DFD1D3689360002DA2
:100AA0000FD18023DB05DD6062B6C2E7DF686C1E14
:100AB000A742ECD8DD68EAE75360E8E70F683C60DE
:100AC000DCE7ED188023DB05D5605D63ECE70C689F
:100AD000276801372760D1E720050020C046C046BF
:100AE000774B01219A6A4942002270B599629A6255
:100AF000186919611A61D96872480143D960DA60CE
:100B0000D869802149050143D9616F4980200C686B
:100B1000400020430860186AC021890008408021F5
:100B20008900884203D08021490219621A62644B0D
:100B30008022196A1202114207D1186A80218900A5
:100B400001431962196A0A431A625D49BC234A6962
:100B5000DB031343FC2090224B61D20500230006E7
:100B6000536090605948A024D0605948A405506152
:100B7000136253621460574AFC24A40053609460CB
:100B8000554C564DD4605061136253621360544A01
:100B900053609560534DD560534D5561A025ED02CE
:100BA000136253621560514AC02553609360D4604C
:100BB00050614F4C1362536213604E4A2D065360CE
:100BC0009360D460506113624B4C536213604B4A84
:100BD0004B48D46194625462103414621024536000
:100BE0005361936153639463464C1060D46394647F
:100BF000546410341464444C0120D464434C936016
:100C00005465434CD36094651074D36212631265CB
:100C1000C624404AA40016593602360A35431551F7
:100C2000C024802564002D0515511560CD6905434C
:100C3000CD6139498D6805438D60384D8021C905E6
:100C40008D6201256D42CD628B614B63CB604B6041
:100C5000C32348619B000860D05880210002000A2D
:100C600009060143D15080231B0213512C4D2D49FD
:100C70002D4C13600023E8184268CE18243A3261E4
:100C8000C668006914331661506114623C2BF2D1BE
:100C900072B6264B264A1A6000229A60DA60012258
:100CA0001A61244B244A186A0240081C10301A6248
:100CB000486008604C31FFF78BFA62B6FEE7C04629
:100CC00000100240FFFFBFFF007000405455556503
:100CD000FFFF0000000400485555555500000FF077
:100CE0000008004855555005FFFC0000000C004866
:100CF000505555550014004800050020B808002044
:100D0000A00E000810050020010300080038014073
:100D1000006CDC0200E100E0005801407FBB0000F5
:100D2000C00E000820050020F10100088806002000
:100D3000C102000800ED00E0FFFF00FFC046C04612
:100D40002748012302680221134303600368244AF1
:100D50001942FBD0536803218B4353605368101C26
:100D600053600C2143681E4A0B40FBD11168F920E7
:100D7000014011605360516B01230B435363022008
:100D8000536B17491842FBD04A6A012313434B6245
:100D900002204B6A124A1842FBD0A0239B035360E7
:100DA0000023D3621363116880235B040B4380200C
:100DB0001360800413680A490342FBD0094B1122D7
:100DC0001A604A68022313434B600C204B68044AA4
:100DD0000340082BFAD1916901230B4393617047BB
:100DE0000010024000200240C046C046C046C04637
:100DF00008B5034B586819681860FFF7E9F908BD92
:100E000020050020C046C046C046C046C046C04679
:100E100072B6FEE7C046C046C046C046C046C046A1
:100E2000F0B50F4E0025371C80377368B468316801
:100E3000A3420AD21A1C01C901C2A242FBD3DA435F
:100E400012199208013292009B18F268934202D262
:100E500020C39342FCD31036BE42E6D3F0BDC04659
:100E6000480F0008C046C046C046C046C046C046FF
:100E7000FEE7C046C046C046C046C046C046C04663
:100E80007047C046C046C046C046C046C046C04681
:100E90007047C046C046C046C046C046C046C04671
:100EA000A107000861060008D106000891050008A6
:100EB000C1060008810500089107000851060008D6
:100EC0008005002088060020200F0008C1070008C8
:100ED00000000000A8060020B00700202C0F00082A
:100EE000F107000800000000B0070020B80800204B
:100EF000380F000811080008000000000000000082
:100F000000000000400F000800000000000000008A
:100F100048656C6C6F20576F726C64210D0A00007D
:100F2000626C696E6B65723100000000626C696E04
:100F30006B6572320000000068656C6C6F00000029
:100F400069646C6500000000C80F000818090020E3
:100F50001809002018090020C80F00080000000030
:100F60000000000000000000C80F000800000000A2
:100F70000000000000000000C80F00080000000092
:100F80000000000000000000C80F00080000000082
:100F90000000000000000000C80F00080000000072
:100FA0000000000000000000C80F00080000000062
:100FB0000000000000000000C80F00080000000052
:080FC000000000000000000029
:0400000508000101ED
:00000001FF
