:020000040001F9
:10000000AE5A0000985A0000DA5A0000C45A0000A4
:10001000D05A0000BA5A0000A45A00008E5A0C1898
:10002000D0040C18C4840B18EB7BF0C000B0FF4F59
:1000300000000000090005000000F00000000104BD
:1000400007090A0C0E0E0E0F0F0F0F0F0F0F028273
:10005000000014AC0000A49C000082AB0000EAA9E0
:1000600000002EA80000E2A6000030A500005CA45D
:100070000000AA9B000018A40000529B0000D6A319
:100080000000FC9A000094A30000A69A000052A36E
:1000900000004E9A00000EA30000F4990000A0A4F6
:1000A0000000029C0000CCA20000AA990000B097BA
:1000B0000000269600004E950000F6930000029383
:1000C000000030A000008C8A0000B8910000BA90B7
:1000D0000000928F0000948E00003E8A00003E9F38
:1000E0000000929E0000F89D0000048E00005C9DC0
:1000F0000000748D00009A8B000016820000788941
:100100000000108B000022810000CE8700009EF7C7
:1001100000009EF70000E4FA0000E0FA0000E8FAB0
:100120000000ECFA0000CCFA0000C8FA0000D4FA93
:100130000000D0FA0000F4FA0000F0FA000000001D
:1001400000000000000000000000DCFA0000D8FA07
:100150000000FF9C795A169760AF3691F4858C7A2F
:1001600010034A15DD757243E3B7663B1C2B1F6114
:100170000ABCFF12700359B00E3D7134C9B5E5EDEC
:1001800062735AE9BE334C45FD7C50088F1129B388
:10019000578D000000102001010111210270701222
:1001A00022037171132304727214240573731525CD
:1001B00006747416260775751727087676182809A9
:1001C000777719290A78781A2A0B79791B2B0C7AF8
:1001D0007A1C2C0D7B7B1D2D0E7C7C1E2E0F7D7DB5
:1001E0001F2F3F7E7E7E4F6F7F7F7F7F7F7FE80365
:1001F000000000000000102700002EE90000E803C6
:10020000000044E900008A150100CA1701001FF729
:100210000000567D0000000000003A2001007A2214
:1002200001002AF700008EDB0000000000001C1C0B
:1002300001005C1E010033F70000A6AC00000000C6
:100240000000A41E0100E41F01003DF7000054BFA0
:10025000000000000000000000000000000049F75E
:10026000000000000000000000000100877FD6179A
:100270000100F2170100DA170100DA17010000008F
:10028000070003000000000009010000B67F000025
:10029000701E01008C1E0100701E0100701E010006
:1002A000FFFF070006000000010202F00000180036
:1002B000000000000000000000000000000000003E
:1002C000000000000000000000000000000000002E
:1002D000000000000000000000000000000000001E
:1002E000000000000000000000000000000000000E
:100AA00000000000000000000000801A06008622FE
:100AB0000100A2220100862201008622010000001E
:100AC0000700877FD6170100F2170100D617010033
:100AD000D617010000000700040000000000090113
:100AE0000000B67F0000701E01008C1E0100701E09
:100AF0000100701E01000000070006000000010256
:100B000002F00000180000000000000000000000DB
:100B100000000000000000000000000000000000D5
:100B200000000000000000000000000000000000C5
:100B300000000000000000000000000000000000B5
:100B400000000000000000000000000000000000A5
:10130000801A060086220100A22201008622010026
:101310008622010000000700621301006213010031
:1013200028036E1701000400877F000000000800FA
:1013300000000A2201000400FFFF7F0000000000FF
:101340000000EC1D01000300A002010000000000ED
:101350000000781F010004000100000000000000F0
:10136000000090F6000000000000000000000000F7
:10137000000000000000010000000000987C000058
:10138000781301000200000000000000C2130100F9
:10139000E2130100C2130100C213010000000000AB
:1013A00074130100000020000000E2130100021489
:1013B0000100ED130100ED130100285D000074131E
:1013C000010000000000000000000000000000001C
:1013D000000000000000000000000000000000000D
:1013E00000000001C34300038E000001C0000000A4
:1013F00000000000000000000000000000000000ED
:1014000000000000000000000000000000000000DC
:1014100000000000000000000000000000000000CC
:1014200000000000000000000000000000000000BC
:10143000000000000000000000000000000002E9C1
:10144000000000000000000000000000000000009C
:10145000000000000000000000000000000000008C
:1014600000000000000000000000CEC30000387340
:10147000000000000000000000000000000000006C
:10148000000000000000000000000000000000005C
:10149000000000000000000000000000000002004A
:1014A000FEFB0000000000000100C0050000DC059C
:1014B000000000000000CE05000000000000C00099
:1014C00000000F000000000000000000CC0500003C
:1014D0000000000000000000C00000000E00EE64EC
:1014E00000009E1401000000000000000000000049
:1014F000000000000000000000000200AA0A010035
:101500000000000000000000000040060000000095
:1015100000000000000000000000C000000000000B
:1015200000000000FA140100000000001312000087
:1015300000000000000000000300EE010100400474
:1015400000000200F6010100000400000300FE019B
:10155000010040030000B8FB00000200180000007A
:10156000000000000000000000008CFB000072C5BD
:1015700080300000000000000000000000000000BB
:10158000000000000000FEFF0F000000000000004F
:10159000000000000000000000000000000000004B
:1015A000000000000000000000000000000000003B
:1015B000000000000000000000000000000000002B
:1015C000000000000000000000000000000000001B
:1015D000000000000000000000000000000000000B
:1015E00000000000000000000000000000000000FB
:1015F00000000000000000000000000000000000EB
:1016000000000000000000000000000000000000DA
:1016100000000000000000000000000000000000CA
:1016200000000000000000000000000000000000BA
:1016300000000000000000000000000000000000AA
:10164000000000000000000000000000000000009A
:10165000000000000000000000000000000000008A
:10166000000000000000000000000000000000007A
:10167000000000000000000000000000000000006A
:10168000000000000000000000000000000000005A
:10169000000000000000000000000000000000004A
:1016A000000000000000000000000000000000003A
:1016B000000000000000000000000000000000002A
:1016C000000000000000000000000000000000001A
:1016D000000000000000000000000000000000000A
:1016E00000000000000000000000000000000000FA
:1016F00000000000000000000000000000000000EA
:1017000000000000000000000000000000000000D9
:1017100000000000000000000000000000000000C9
:10172000000000000000000000000000000078132E
:101730000100D67C000078130100ED130100C00009
:10174000000078130100D67C0000781301007813A4
:101750000100D67C000078130100245D0000B05128
:10176000000000000000EEBF000086130100A4137B
:10177000010000000000877F00000000000022132D
:1017800001000000000018130100045000000000D8
:10179000000022130100B2800000B05100000000E0
:1017A0000000EEBF000086130100CA510000007F58
:1017B0000000567D00000000000000000000000056
:1017C0000000000000000C54000022130100000083
:1017D000000000000000F6170100000000000000FB
:1017E00000000000000000000000000000000000F9
:1017F00000000901000000000000000300000000DC
:10180000008E00000000000000000000000000004A
:1018100000000000000000000000000000000000C8
:1018200000000000000000000000000000000000B8
:1018300000000000000000000000000000000000A8
:101840000000000000000000000000000000000098
:101DE000000000000000000000000000A6AC0000A1
:101DF000000000000000000000000000421301008D
:101E00000000000018130100045000006C1E0100C7
:101E100000000000A450000090020100D252000017
:101E200000000000145300006C1E01003453000039
:101E300090020100000000002AE40000CCAC000089
:101E400000000000A6AC0000000000000000000040
:101E500000000000000000000C5400000000000022
:101E60000000000000000000000000000000000072
:101E70000000000000000000000000000000000062
:101E80000000000000000000000000000000000052
:101E9000FC17010006008E0000000000000000009A
:101EA0000000000000000000000000000000000032
:101EB0000000000000000000000000000000000022
:101EC0000000000000000000000000000000000012
:101ED0000000000000000000000000000000000002
:101EE00000000000000000000000000000000000F2
:101EF00000000000000000000000000000000000E2
:101F000000000000000000000000000000000000D1
:101F100000000000000000000000000000000000C1
:101F200000000000000000000000000000000000B1
:101F300000000000000000000000000000000000A1
:101F40000000000000000000000000000000000091
:101F50000000000000000000000000000000000081
:101F60000000000000000000000000000000000071
:101F70000000000000000000CA5100000000000046
:101F800001000000000000005213010000000000EA
:101F9000181301000450000000000000521301005B
:101FA0009251000054BF000000000000000000003B
:101FB0004C5100000000000018800000B0510000EB
:101FC00072BF000054BF00000000000000000000CD
:101FD0000000000000000000000000000000000001
:101FE0000C5400005213010000000000000000002B
:101FF0000000000000000A000000001801000000BE
:1020000000000000000000000000000000000000D0
:1020100000000000000000000000000000000000C0
:1020200000000000000000000000000000000000B0
:1020300000000000000000000000000000000000A0
:102040000000000000000000000000000000000090
:102050000000000000000000000000000000000080
:102060000000000000000000000000000000000070
:102070000000000000000000000000000000000060
:102080000000000000000000000000000000000050
:102090000000000000000000000000000000000040
:1020A0000000000000000000000000000000000030
:1020B0000000000000000000000000000000000020
:1020C0000000000000000000000000000000000010
:1020D0000000000000000000000000000000000000
:1020E00000000000000000000000000000000000F0
:1020F00000000000000000000000000000000000E0
:1021000000000000000000000000000000000000CF
:1021100000000000000000000000000000000000BF
:1021200000000000000000000000000000000000AF
:10213000000000000000000000000000000000009F
:10214000000000000000000000000000000000008F
:10215000000000000000000000000000000000007F
:10216000000000000000000000000000000000006F
:10217000000000000000000000000000000000005F
:10218000000000000000000000000000000000004F
:10219000000000000000000000000000000000003F
:1021A0000000000000000000080000001000000017
:1021B000000000006A4400003C000000C004000071
:1021C000080000001B0C00001000000000000000D0
:1021D000000000001B0C0000000000001C000000BC
:1021E0006002000008000000080088F246000000BD
:1021F00052290000FEFF44730000000000000500AB
:1022000000000000000032130100CA51000000006D
:102210000000FFFF00007F000000321301000000FB
:1022200000001813010004500000000000003213E9
:1022300001009251000000000000000000008CFB33
:10224000000000000000CA51000054EB00002ABB4F
:1022500000003CDF0000000000008EDB00008EDB91
:10226000000000000000000000000000000000006E
:102270000000000000000C540000B8FB00000060EB
:102280000100321301000000000000000000000007
:10229000000000000000000000000000000000003E
:1022A00000000000000000000000070400008AE0B9
:1022B000000000000000000000000000000000001E
:1022C000000000000000000000000000000000000E
:1022D00000000000000000000000000000000000FE
:1022E00000000000000000000000000000000000EE
:103AB0000000000000000000050000000000000001
:103AC0001B0C1A0C170C170C150C150C281A0000DF
:103AD000161A000000A3020000A30200000000006C
:103AE00000000000000000000000000000000000D6
:103AF00000000000000000000000000000000000C6
:103B000000000000000000000000000000000000B5
:103B100000000000000000000000000000000000A5
:00000001FF
