:101800001442FC1914930224B0120044B240845ACA
:101810005C01B24000A56001B24006006201B24026
:1018200033006401B24033006601F240FF00610101
:10183000B24012000005B240FFFB1A05B24000445E
:101840001605B2404C061205B240D00C1005B2404D
:10185000930F4006B2400A004606B24051006006AF
:10186000F240D0000202C2430402F240D800060255
:10187000F24027000A02F240C7000C0292C3300176
:1018800092C34006A2B36C06FD27E2424E06A2B305
:101890006C06FD27C2434E06A2B36C06FD27C24369
:1018A0004E06B240820F4006B2B21005FD27A2D20A
:1018B0004006D4424C060000A2B24006FD23C243BB
:1018C000FC19B24048A52001FFFFFFFFFFFFFFFF0B
:1018D000FFFFFFFFFFFFFFFFFFFFFFFFFFFFFFFF18
:1018E000FFFFFFFFFFFFFFFFFFFFFFFFFFFFFFFF08
:1018F000FFFFFFFFFFFFFFFFFFFFFFFFFFFFFFFFF8
:10190000FFFFFFFFFFFFFFFFFFFFFFFFFFFFFFFFE7
:10191000FFFFFFFFFFFFFFFFFFFFFFFFFFFFFFFFD7
:10192000FFFFFFFFFFFFFFFFFFFFFFFFFFFFFFFFC7
:10193000FFFFFFFFFFFFFFFFFFFFFFFFFFFFFFFFB7
:10194000FFFFFFFFFFFFFFFFFFFFFFFFFFFFFFFFA7
:10195000FFFFFFFFFFFFFFFFFFFFFFFFFFFFFFFF97
:10196000FFFFFFFFFFFFFFFFFFFFFFFFFFFFFFFF87
:10197000FFFFFFFFFFFFFFFFFFFFFFFFFFFFFFFF77
:10198000FFFFFFFFFFFFFFFFFFFFFFFFFFFFFFFF67
:10199000FFFFFFFFFFFFFFFFFFFFFFFFFFFFFFFF57
:1019A000FFFFFFFFFFFFFFFFFFFFFFFFFFFFFFFF47
:1019B000FFFFFFFFFFFFFFFFFFFFFFFFFFFFFFFF37
:1019C000FFFFFFFFFFFFFFFFFFFFFFFFFFFFFFFF27
:1019D000FFFFFFFFFFFFFFFFFFFFFFFFFFFFFFFF17
:1019E000FFFFFFFFFFFFFFFFFFFFFFFFFFFFFFFF07
:1019F000FFFFFFFFFFFFFFFFFFFFFFFF0000FFFFF5
:00000001FF
